{"contracts/ProjectEscrow.sol":{"ProjectEscrow":{"abi":[{"inputs":[{"internalType":"address","name":"_platformAdmin","type":"address"}],"stateMutability":"nonpayable","type":"constructor"},{"inputs":[{"internalType":"address","name":"owner","type":"address"}],"name":"OwnableInvalidOwner","type":"error"},{"inputs":[{"internalType":"address","name":"account","type":"address"}],"name":"OwnableUnauthorizedAccount","type":"error"},{"inputs":[],"name":"ReentrancyGuardReentrantCall","type":"error"},{"anonymous":false,"inputs":[{"indexed":true,"internalType":"bytes32","name":"projectId","type":"bytes32"}],"name":"DisputeRaised","type":"event"},{"anonymous":false,"inputs":[{"indexed":true,"internalType":"bytes32","name":"projectId","type":"bytes32"},{"indexed":false,"internalType":"enum ProjectEscrow.DisputeOutcome","name":"outcome","type":"uint8"}],"name":"DisputeResolved","type":"event"},{"anonymous":false,"inputs":[{"indexed":true,"internalType":"bytes32","name":"projectId","type":"bytes32"},{"indexed":true,"internalType":"address","name":"client","type":"address"},{"indexed":true,"internalType":"address","name":"freelancer","type":"address"},{"indexed":false,"internalType":"uint256","name":"totalAmount","type":"uint256"}],"name":"EscrowCreated","type":"event"},{"anonymous":false,"inputs":[{"indexed":true,"internalType":"bytes32","name":"projectId","type":"bytes32"},{"indexed":false,"internalType":"uint256","name":"amount","type":"uint256"}],"name":"EscrowFunded","type":"event"},{"anonymous":false,"inputs":[{"indexed":true,"internalType":"bytes32","name":"projectId","type":"bytes32"},{"indexed":true,"internalType":"address","name":"to","type":"address"},{"indexed":false,"internalType":"uint256","name":"amount","type":"uint256"}],"name":"FundsReleased","type":"event"},{"anonymous":false,"inputs":[{"indexed":true,"internalType":"bytes32","name":"projectId","type":"bytes32"},{"indexed":false,"internalType":"uint256","name":"milestoneIndex","type":"uint256"},{"indexed":false,"internalType":"uint256","name":"amount","type":"uint256"}],"name":"MilestoneApproved","type":"event"},{"anonymous":false,"inputs":[{"indexed":true,"internalType":"address","name":"previousOwner","type":"address"},{"indexed":true,"internalType":"address","name":"newOwner","type":"address"}],"name":"OwnershipTransferred","type":"event"},{"inputs":[{"internalType":"bytes32","name":"projectId","type":"bytes32"},{"internalType":"uint256","name":"milestoneIndex","type":"uint256"}],"name":"approveMilestone","outputs":[],"stateMutability":"nonpayable","type":"function"},{"inputs":[{"internalType":"bytes32","name":"projectId","type":"bytes32"},{"internalType":"address","name":"freelancer","type":"address"},{"internalType":"uint256[]","name":"milestoneAmounts","type":"uint256[]"}],"name":"createEscrow","outputs":[],"stateMutability":"payable","type":"function"},{"inputs":[{"internalType":"bytes32","name":"","type":"bytes32"}],"name":"escrows","outputs":[{"internalType":"address","name":"client","type":"address"},{"internalType":"address","name":"freelancer","type":"address"},{"internalType":"uint256","name":"totalAmount","type":"uint256"},{"internalType":"uint256","name":"releasedAmount","type":"uint256"},{"internalType":"enum ProjectEscrow.EscrowStatus","name":"status","type":"uint8"},{"internalType":"bool","name":"inDispute","type":"bool"},{"internalType":"enum ProjectEscrow.DisputeOutcome","name":"disputeOutcome","type":"uint8"},{"internalType":"uint256","name":"createdAt","type":"uint256"}],"stateMutability":"view","type":"function"},{"inputs":[{"internalType":"bytes32","name":"projectId","type":"bytes32"}],"name":"getEscrow","outputs":[{"internalType":"address","name":"client","type":"address"},{"internalType":"address","name":"freelancer","type":"address"},{"internalType":"uint256","name":"totalAmount","type":"uint256"},{"internalType":"uint256","name":"releasedAmount","type":"uint256"},{"internalType":"enum ProjectEscrow.EscrowStatus","name":"status","type":"uint8"},{"internalType":"bool","name":"inDispute","type":"bool"}],"stateMutability":"view","type":"function"},{"inputs":[{"internalType":"bytes32","name":"projectId","type":"bytes32"}],"name":"getMilestones","outputs":[{"components":[{"internalType":"uint256","name":"amount","type":"uint256"},{"internalType":"bool","name":"approved","type":"bool"},{"internalType":"uint256","name":"approvedAt","type":"uint256"}],"internalType":"struct ProjectEscrow.Milestone[]","name":"","type":"tuple[]"}],"stateMutability":"view","type":"function"},{"inputs":[{"internalType":"bytes32","name":"","type":"bytes32"},{"internalType":"uint256","name":"","type":"uint256"}],"name":"milestones","outputs":[{"internalType":"uint256","name":"amount","type":"uint256"},{"internalType":"bool","name":"approved","type":"bool"},{"internalType":"uint256","name":"approvedAt","type":"uint256"}],"stateMutability":"view","type":"function"},{"inputs":[],"name":"owner","outputs":[{"internalType":"address","name":"","type":"address"}],"stateMutability":"view","type":"function"},{"inputs":[],"name":"platformAdmin","outputs":[{"internalType":"address","name":"","type":"address"}],"stateMutability":"view","type":"function"},{"inputs":[{"internalType":"bytes32","name":"projectId","type":"bytes32"}],"name":"raiseDispute","outputs":[],"stateMutability":"nonpayable","type":"function"},{"inputs":[],"name":"renounceOwnership","outputs":[],"stateMutability":"nonpayable","type":"function"},{"inputs":[{"internalType":"bytes32","name":"projectId","type":"bytes32"},{"internalType":"enum ProjectEscrow.DisputeOutcome","name":"outcome","type":"uint8"},{"internalType":"uint256","name":"freelancerPercentage","type":"uint256"}],"name":"resolveDispute","outputs":[],"stateMutability":"nonpayable","type":"function"},{"inputs":[{"internalType":"address","name":"newOwner","type":"address"}],"name":"transferOwnership","outputs":[],"stateMutability":"nonpayable","type":"function"},{"inputs":[{"internalType":"address","name":"newAdmin","type":"address"}],"name":"updatePlatformAdmin","outputs":[],"stateMutability":"nonpayable","type":"function"},{"inputs":[],"name":"version","outputs":[{"internalType":"string","name":"","type":"string"}],"stateMutability":"pure","type":"function"}],"evm":{"bytecode":{"linkReferences":{},"object":"60806040523480156200001157600080fd5b5060405162001c9038038062001c9083398101604081905262000034916200013d565b600160005533806200006157604051631e4fbdf760e01b8152600060048201526024015b60405180910390fd5b6200006c81620000eb565b506001600160a01b038116620000c55760405162461bcd60e51b815260206004820152601560248201527f496e76616c69642061646d696e20616464726573730000000000000000000000604482015260640162000058565b600480546001600160a01b0319166001600160a01b03929092169190911790556200016f565b600180546001600160a01b038381166001600160a01b0319831681179093556040519116919082907f8be0079c531659141344cd1fd0a4f28419497f9722a3daafe3b4186f6b6457e090600090a35050565b6000602082840312156200015057600080fd5b81516001600160a01b03811681146200016857600080fd5b9392505050565b611b11806200017f6000396000f3fe6080604052600436106100dd5760003560e01c8063b6bab8231161007f578063ea4a873c11610059578063ea4a873c146102c0578063f023b811146102ed578063f2fde38b1461031f578063ff258f331461033f57600080fd5b8063b6bab8231461026d578063cdcd7fb514610280578063e14f5b7d146102a057600080fd5b8063669c8cba116100bb578063669c8cba146101cb578063715018a6146102065780638da5cb5b1461021b578063a9f03b831461024d57600080fd5b80632b7a1f96146100e25780632d83549c1461010457806354fd4d5014610197575b600080fd5b3480156100ee57600080fd5b506101026100fd3660046116aa565b61035f565b005b34801561011057600080fd5b5061017a61011f3660046116cc565b60026020819052600091825260409091208054600182015492820154600383015460048401546005909401546001600160a01b0393841695909316939192909160ff8082169261010083048216926201000090049091169088565b60405161018e98979695949392919061171f565b60405180910390f35b3480156101a357600080fd5b5060408051808201825260058152640312e302e360dc1b6020820152905161018e919061177b565b3480156101d757600080fd5b506101eb6101e63660046116aa565b6106df565b6040805193845291151560208401529082015260600161018e565b34801561021257600080fd5b50610102610725565b34801561022757600080fd5b506001546001600160a01b03165b6040516001600160a01b03909116815260200161018e565b34801561025957600080fd5b506101026102683660046117e5565b610739565b61010261027b36600461181d565b6107ab565b34801561028c57600080fd5b50600454610235906001600160a01b031681565b3480156102ac57600080fd5b506101026102bb3660046116cc565b610c1d565b3480156102cc57600080fd5b506102e06102db3660046116cc565b610da9565b60405161018e91906118f7565b3480156102f957600080fd5b5061030d6103083660046116cc565b610e3a565b60405161018e96959493929190611952565b34801561032b57600080fd5b5061010261033a3660046117e5565b610f48565b34801561034b57600080fd5b5061010261035a366004611998565b610f86565b610367611601565b60008281526002602052604090205482906001600160a01b03166103a65760405162461bcd60e51b815260040161039d906119d4565b60405180910390fd5b600083815260026020526040902080546001600160a01b031633146103fb5760405162461bcd60e51b815260206004820152600b60248201526a13db9b1e4818db1a595b9d60aa1b604482015260640161039d565b600160048083015460ff1690811115610416576104166116e5565b146104545760405162461bcd60e51b815260206004820152600e60248201526d496e76616c69642073746174757360901b604482015260640161039d565b6004810154610100900460ff16156104a05760405162461bcd60e51b815260206004820152600f60248201526e115cd8dc9bddc8191a5cdc1d5d1959608a1b604482015260640161039d565b60008481526003602052604090205483106104f15760405162461bcd60e51b8152602060048201526011602482015270496e76616c6964206d696c6573746f6e6560781b604482015260640161039d565b600084815260036020526040812080548590811061051157610511611a03565b60009182526020909120600390910201600181015490915060ff161561056c5760405162461bcd60e51b815260206004820152601060248201526f105b1c9958591e48185c1c1c9bdd995960821b604482015260640161039d565b6001818101805460ff191690911790554260028201558054600383018054600090610598908490611a2f565b9091555050600182015481546040516000926001600160a01b031691908381818185875af1925050503d80600081146105ed576040519150601f19603f3d011682016040523d82523d6000602084013e6105f2565b606091505b50509050806106355760405162461bcd60e51b815260206004820152600f60248201526e151c985b9cd9995c8819985a5b1959608a1b604482015260640161039d565b815460405187917f0f57edbe6b21333c1a5ce476e82107e65ebdc53e0b7fb7c35fd0370de4a4e09f9161067091898252602082015260400190565b60405180910390a2600183015482546040519081526001600160a01b03909116908790600080516020611abc8339815191529060200160405180910390a382600201548360030154036106cd5760048301805460ff191660021790555b505050506106db6001600055565b5050565b600360205281600052604060002081815481106106fb57600080fd5b600091825260209091206003909102018054600182015460029092015490935060ff909116915083565b61072d61162b565b6107376000611658565b565b61074161162b565b6001600160a01b0381166107895760405162461bcd60e51b815260206004820152600f60248201526e496e76616c6964206164647265737360881b604482015260640161039d565b600480546001600160a01b0319166001600160a01b0392909216919091179055565b6000838152600260205260409020546001600160a01b0316156108085760405162461bcd60e51b8152602060048201526015602482015274457363726f7720616c72656164792065786973747360581b604482015260640161039d565b6001600160a01b0382166108535760405162461bcd60e51b815260206004820152601260248201527124b73b30b634b210333932b2b630b731b2b960711b604482015260640161039d565b60008151116108965760405162461bcd60e51b815260206004820152600f60248201526e4e656564206d696c6573746f6e657360881b604482015260640161039d565b336001600160a01b038316036108e65760405162461bcd60e51b815260206004820152601560248201527421b0b73737ba1032b9b1b937bb903a379039b2b63360591b604482015260640161039d565b6000805b8251811015610a1d57600083828151811061090757610907611a03565b60200260200101511161095c5760405162461bcd60e51b815260206004820152601860248201527f496e76616c6964206d696c6573746f6e6520616d6f756e740000000000000000604482015260640161039d565b82818151811061096e5761096e611a03565b6020026020010151826109819190611a2f565b91506003600086815260200190815260200160002060405180606001604052808584815181106109b3576109b3611a03565b60209081029190910181015182526000828201819052604092830181905284546001808201875595825290829020845160039092020190815590830151938101805460ff191694151594909417909355015160029091015580610a1581611a48565b9150506108ea565b50803414610a655760405162461bcd60e51b8152602060048201526015602482015274125b98dbdc9c9958dd08185b5bdd5b9d081cd95b9d605a1b604482015260640161039d565b60408051610100810182523381526001600160a01b038516602082015290810182905260006060820152608081016001815260006020820181905260409091019081524260209182015260008681526002808352604091829020845181546001600160a01b039182166001600160a01b03199182161783559486015160018084018054929093169190961617905591840151908201556060830151600382015560808301516004808301805493949293909260ff19909116918490811115610b2f57610b2f6116e5565b021790555060a08201516004820180549115156101000261ff001983168117825560c08501519262ff00001990911662ffff00199091161762010000836003811115610b7d57610b7d6116e5565b021790555060e08201518160050155905050826001600160a01b0316336001600160a01b0316857f0dd968c277d9dc6b36b6ec2b638324c3d937882c64ca109440bc050ebf26cb0784604051610bd591815260200190565b60405180910390a4837f08bc5e5162ba9d1a558b2d254f4739d54c8d7051230419652b328670bd68fc3782604051610c0f91815260200190565b60405180910390a250505050565b60008181526002602052604090205481906001600160a01b0316610c535760405162461bcd60e51b815260040161039d906119d4565b600082815260026020526040902080546001600160a01b0316331480610c85575060018101546001600160a01b031633145b610cc25760405162461bcd60e51b815260206004820152600e60248201526d139bdd08185d5d1a1bdc9a5e995960921b604482015260640161039d565b600160048083015460ff1690811115610cdd57610cdd6116e5565b14610d1b5760405162461bcd60e51b815260206004820152600e60248201526d496e76616c69642073746174757360901b604482015260640161039d565b6004810154610100900460ff1615610d685760405162461bcd60e51b815260206004820152601060248201526f105b1c9958591e48191a5cdc1d5d195960821b604482015260640161039d565b60048101805461ffff191661010417905560405183907f384768a28d40bb1ee9c7940dfdd5b551453a3e1c5cbd958a695d82dc8e5c326a90600090a2505050565b606060036000838152602001908152602001600020805480602002602001604051908101604052809291908181526020016000905b82821015610e2f57600084815260209081902060408051606081018252600386029092018054835260018082015460ff16151584860152600290910154918301919091529083529092019101610dde565b505050509050919050565b600081815260026020818152604080842081516101008101835281546001600160a01b03908116825260018301541693810193909352928301549082015260038201546060820152600480830154849384938493849384938493929091608084019160ff90911690811115610eb157610eb16116e5565b6004811115610ec257610ec26116e5565b8152600482015460ff610100820481161515602084015260409092019162010000909104166003811115610ef857610ef86116e5565b6003811115610f0957610f096116e5565b81526005919091015460209182015281519082015160408301516060840151608085015160a090950151939d929c50909a509850919650945092505050565b610f5061162b565b6001600160a01b038116610f7a57604051631e4fbdf760e01b81526000600482015260240161039d565b610f8381611658565b50565b6004546001600160a01b03163314610fd65760405162461bcd60e51b815260206004820152601360248201527227b7363c90383630ba3337b9369030b236b4b760691b604482015260640161039d565b610fde611601565b60008381526002602052604090205483906001600160a01b03166110145760405162461bcd60e51b815260040161039d906119d4565b60008481526002602052604090206004810154610100900460ff1661106f5760405162461bcd60e51b81526020600482015260116024820152704e6f20616374697665206469737075746560781b604482015260640161039d565b6000846003811115611083576110836116e5565b036110c25760405162461bcd60e51b815260206004820152600f60248201526e496e76616c6964206f7574636f6d6560881b604482015260640161039d565b6000816003015482600201546110d89190611a61565b9050600081116111235760405162461bcd60e51b81526020600482015260166024820152754e6f2066756e647320746f206469737472696275746560501b604482015260640161039d565b60048201805461ff00198116825586919062ffff00191662010000836003811115611150576111506116e5565b02179055506001856003811115611169576111696116e5565b03611260576002820154600383015560018201546040516000916001600160a01b03169083908381818185875af1925050503d80600081146111c7576040519150601f19603f3d011682016040523d82523d6000602084013e6111cc565b606091505b505090508061120f5760405162461bcd60e51b815260206004820152600f60248201526e151c985b9cd9995c8819985a5b1959608a1b604482015260640161039d565b60018301546040518381526001600160a01b03909116908890600080516020611abc8339815191529060200160405180910390a36004830180546002919060ff19166001835b0217905550506115b7565b6002856003811115611274576112746116e5565b036113525781546040516000916001600160a01b03169083908381818185875af1925050503d80600081146112c5576040519150601f19603f3d011682016040523d82523d6000602084013e6112ca565b606091505b505090508061130b5760405162461bcd60e51b815260206004820152600d60248201526c1499599d5b990819985a5b1959609a1b604482015260640161039d565b82546040518381526001600160a01b03909116908890600080516020611abc8339815191529060200160405180910390a36004830180546003919060ff1916600183611255565b6003856003811115611366576113666116e5565b036115b75760648411156113b15760405162461bcd60e51b8152602060048201526012602482015271496e76616c69642070657263656e7461676560701b604482015260640161039d565b600060646113bf8684611a74565b6113c99190611a8b565b905060006113d78284611a61565b905081156114ba5760018401546040516000916001600160a01b03169084908381818185875af1925050503d806000811461142e576040519150601f19603f3d011682016040523d82523d6000602084013e611433565b606091505b50509050806114845760405162461bcd60e51b815260206004820152601a60248201527f467265656c616e636572207472616e73666572206661696c6564000000000000604482015260640161039d565b60018501546040518481526001600160a01b03909116908a90600080516020611abc8339815191529060200160405180910390a3505b801561158c5783546040516000916001600160a01b03169083908381818185875af1925050503d806000811461150c576040519150601f19603f3d011682016040523d82523d6000602084013e611511565b606091505b50509050806115595760405162461bcd60e51b815260206004820152601460248201527310db1a595b9d081c99599d5b990819985a5b195960621b604482015260640161039d565b84546040518381526001600160a01b03909116908a90600080516020611abc8339815191529060200160405180910390a3505b818460030160008282546115a09190611a2f565b9091555050505060048201805460ff191660021790555b857f0a168b993fc74606982b54f62facd64a9642fc31797b78c5b503b4116f3c8388866040516115e79190611aad565b60405180910390a25050506115fc6001600055565b505050565b60026000540361162457604051633ee5aeb560e01b815260040160405180910390fd5b6002600055565b6001546001600160a01b031633146107375760405163118cdaa760e01b815233600482015260240161039d565b600180546001600160a01b038381166001600160a01b0319831681179093556040519116919082907f8be0079c531659141344cd1fd0a4f28419497f9722a3daafe3b4186f6b6457e090600090a35050565b600080604083850312156116bd57600080fd5b50508035926020909101359150565b6000602082840312156116de57600080fd5b5035919050565b634e487b7160e01b600052602160045260246000fd5b6005811061170b5761170b6116e5565b9052565b6004811061170b5761170b6116e5565b6001600160a01b038981168252881660208201526040810187905260608101869052610100810161175360808301876116fb565b84151560a083015261176860c083018561170f565b8260e08301529998505050505050505050565b600060208083528351808285015260005b818110156117a85785810183015185820160400152820161178c565b506000604082860101526040601f19601f8301168501019250505092915050565b80356001600160a01b03811681146117e057600080fd5b919050565b6000602082840312156117f757600080fd5b611800826117c9565b9392505050565b634e487b7160e01b600052604160045260246000fd5b60008060006060848603121561183257600080fd5b8335925060206118438186016117c9565b9250604085013567ffffffffffffffff8082111561186057600080fd5b818701915087601f83011261187457600080fd5b81358181111561188657611886611807565b8060051b604051601f19603f830116810181811085821117156118ab576118ab611807565b60405291825284820192508381018501918a8311156118c957600080fd5b938501935b828510156118e7578435845293850193928501926118ce565b8096505050505050509250925092565b602080825282518282018190526000919060409081850190868401855b8281101561194557815180518552868101511515878601528501518585015260609093019290850190600101611914565b5091979650505050505050565b6001600160a01b03878116825286166020820152604081018590526060810184905260c0810161198560808301856116fb565b82151560a0830152979650505050505050565b6000806000606084860312156119ad57600080fd5b833592506020840135600481106119c357600080fd5b929592945050506040919091013590565b602080825260159082015274115cd8dc9bddc8191bd95cc81b9bdd08195e1a5cdd605a1b604082015260600190565b634e487b7160e01b600052603260045260246000fd5b634e487b7160e01b600052601160045260246000fd5b80820180821115611a4257611a42611a19565b92915050565b600060018201611a5a57611a5a611a19565b5060010190565b81810381811115611a4257611a42611a19565b8082028115828204841417611a4257611a42611a19565b600082611aa857634e487b7160e01b600052601260045260246000fd5b500490565b60208101611a42828461170f56fe75d86e5bfa1175e2dc677f3abe3aebba3069f2db6ae492f1734d4b4bc65f61c1a26469706673582212204b4b49b5f711a2677acbcf7837e032944e85bd75967b8cc6045b02a966d05ebf64736f6c63430008140033","opcodes":"PUSH1 0x80 PUSH1 0x40 MSTORE CALLVALUE DUP1 ISZERO PUSH3 0x11 JUMPI PUSH1 0x0 DUP1 REVERT JUMPDEST POP PUSH1 0x40 MLOAD PUSH3 0x1C90 CODESIZE SUB DUP1 PUSH3 0x1C90 DUP4 CODECOPY DUP2 ADD PUSH1 0x40 DUP2 SWAP1 MSTORE PUSH3 0x34 SWAP2 PUSH3 0x13D JUMP JUMPDEST PUSH1 0x1 PUSH1 0x0 SSTORE CALLER DUP1 PUSH3 0x61 JUMPI PUSH1 0x40 MLOAD PUSH4 0x1E4FBDF7 PUSH1 0xE0 SHL DUP2 MSTORE PUSH1 0x0 PUSH1 0x4 DUP3 ADD MSTORE PUSH1 0x24 ADD JUMPDEST PUSH1 0x40 MLOAD DUP1 SWAP2 SUB SWAP1 REVERT JUMPDEST PUSH3 0x6C DUP2 PUSH3 0xEB JUMP JUMPDEST POP PUSH1 0x1 PUSH1 0x1 PUSH1 0xA0 SHL SUB DUP2 AND PUSH3 0xC5 JUMPI PUSH1 0x40 MLOAD PUSH3 0x461BCD PUSH1 0xE5 SHL DUP2 MSTORE PUSH1 0x20 PUSH1 0x4 DUP3 ADD MSTORE PUSH1 0x15 PUSH1 0x24 DUP3 ADD MSTORE PUSH32 0x496E76616C69642061646D696E20616464726573730000000000000000000000 PUSH1 0x44 DUP3 ADD MSTORE PUSH1 0x64 ADD PUSH3 0x58 JUMP JUMPDEST PUSH1 0x4 DUP1 SLOAD PUSH1 0x1 PUSH1 0x1 PUSH1 0xA0 SHL SUB NOT AND PUSH1 0x1 PUSH1 0x1 PUSH1 0xA0 SHL SUB SWAP3 SWAP1 SWAP3 AND SWAP2 SWAP1 SWAP2 OR SWAP1 SSTORE PUSH3 0x16F JUMP JUMPDEST PUSH1 0x1 DUP1 SLOAD PUSH1 0x1 PUSH1 0x1 PUSH1 0xA0 SHL SUB DUP4 DUP2 AND PUSH1 0x1 PUSH1 0x1 PUSH1 0xA0 SHL SUB NOT DUP4 AND DUP2 OR SWAP1 SWAP4 SSTORE PUSH1 0x40 MLOAD SWAP2 AND SWAP2 SWAP1 DUP3 SWAP1 PUSH32 0x8BE0079C531659141344CD1FD0A4F28419497F9722A3DAAFE3B4186F6B6457E0 SWAP1 PUSH1 0x0 SWAP1 LOG3 POP POP JUMP JUMPDEST PUSH1 0x0 PUSH1 0x20 DUP3 DUP5 SUB SLT ISZERO PUSH3 0x150 JUMPI PUSH1 0x0 DUP1 REVERT JUMPDEST DUP2 MLOAD PUSH1 0x1 PUSH1 0x1 PUSH1 0xA0 SHL SUB DUP2 AND DUP2 EQ PUSH3 0x168 JUMPI PUSH1 0x0 DUP1 REVERT JUMPDEST SWAP4 SWAP3 POP POP POP JUMP JUMPDEST PUSH2 0x1B11 DUP1 PUSH3 0x17F PUSH1 0x0 CODECOPY PUSH1 0x0 RETURN INVALID PUSH1 0x80 PUSH1 0x40 MSTORE PUSH1 0x4 CALLDATASIZE LT PUSH2 0xDD JUMPI PUSH1 0x0 CALLDATALOAD PUSH1 0xE0 SHR DUP1 PUSH4 0xB6BAB823 GT PUSH2 0x7F JUMPI DUP1 PUSH4 0xEA4A873C GT PUSH2 0x59 JUMPI DUP1 PUSH4 0xEA4A873C EQ PUSH2 0x2C0 JUMPI DUP1 PUSH4 0xF023B811 EQ PUSH2 0x2ED JUMPI DUP1 PUSH4 0xF2FDE38B EQ PUSH2 0x31F JUMPI DUP1 PUSH4 0xFF258F33 EQ PUSH2 0x33F JUMPI PUSH1 0x0 DUP1 REVERT JUMPDEST DUP1 PUSH4 0xB6BAB823 EQ PUSH2 0x26D JUMPI DUP1 PUSH4 0xCDCD7FB5 EQ PUSH2 0x280 JUMPI DUP1 PUSH4 0xE14F5B7D EQ PUSH2 0x2A0 JUMPI PUSH1 0x0 DUP1 REVERT JUMPDEST DUP1 PUSH4 0x669C8CBA GT PUSH2 0xBB JUMPI DUP1 PUSH4 0x669C8CBA EQ PUSH2 0x1CB JUMPI DUP1 PUSH4 0x715018A6 EQ PUSH2 0x206 JUMPI DUP1 PUSH4 0x8DA5CB5B EQ PUSH2 0x21B JUMPI DUP1 PUSH4 0xA9F03B83 EQ PUSH2 0x24D JUMPI PUSH1 0x0 DUP1 REVERT JUMPDEST DUP1 PUSH4 0x2B7A1F96 EQ PUSH2 0xE2 JUMPI DUP1 PUSH4 0x2D83549C EQ PUSH2 0x104 JUMPI DUP1 PUSH4 0x54FD4D50 EQ PUSH2 0x197 JUMPI JUMPDEST PUSH1 0x0 DUP1 REVERT JUMPDEST CALLVALUE DUP1 ISZERO PUSH2 0xEE JUMPI PUSH1 0x0 DUP1 REVERT JUMPDEST POP PUSH2 0x102 PUSH2 0xFD CALLDATASIZE PUSH1 0x4 PUSH2 0x16AA JUMP JUMPDEST PUSH2 0x35F JUMP JUMPDEST STOP JUMPDEST CALLVALUE DUP1 ISZERO PUSH2 0x110 JUMPI PUSH1 0x0 DUP1 REVERT JUMPDEST POP PUSH2 0x17A PUSH2 0x11F CALLDATASIZE PUSH1 0x4 PUSH2 0x16CC JUMP JUMPDEST PUSH1 0x2 PUSH1 0x20 DUP2 SWAP1 MSTORE PUSH1 0x0 SWAP2 DUP3 MSTORE PUSH1 0x40 SWAP1 SWAP2 KECCAK256 DUP1 SLOAD PUSH1 0x1 DUP3 ADD SLOAD SWAP3 DUP3 ADD SLOAD PUSH1 0x3 DUP4 ADD SLOAD PUSH1 0x4 DUP5 ADD SLOAD PUSH1 0x5 SWAP1 SWAP5 ADD SLOAD PUSH1 0x1 PUSH1 0x1 PUSH1 0xA0 SHL SUB SWAP4 DUP5 AND SWAP6 SWAP1 SWAP4 AND SWAP4 SWAP2 SWAP3 SWAP1 SWAP2 PUSH1 0xFF DUP1 DUP3 AND SWAP3 PUSH2 0x100 DUP4 DIV DUP3 AND SWAP3 PUSH3 0x10000 SWAP1 DIV SWAP1 SWAP2 AND SWAP1 DUP9 JUMP JUMPDEST PUSH1 0x40 MLOAD PUSH2 0x18E SWAP9 SWAP8 SWAP7 SWAP6 SWAP5 SWAP4 SWAP3 SWAP2 SWAP1 PUSH2 0x171F JUMP JUMPDEST PUSH1 0x40 MLOAD DUP1 SWAP2 SUB SWAP1 RETURN JUMPDEST CALLVALUE DUP1 ISZERO PUSH2 0x1A3 JUMPI PUSH1 0x0 DUP1 REVERT JUMPDEST POP PUSH1 0x40 DUP1 MLOAD DUP1 DUP3 ADD DUP3 MSTORE PUSH1 0x5 DUP2 MSTORE PUSH5 0x312E302E3 PUSH1 0xDC SHL PUSH1 0x20 DUP3 ADD MSTORE SWAP1 MLOAD PUSH2 0x18E SWAP2 SWAP1 PUSH2 0x177B JUMP JUMPDEST CALLVALUE DUP1 ISZERO PUSH2 0x1D7 JUMPI PUSH1 0x0 DUP1 REVERT JUMPDEST POP PUSH2 0x1EB PUSH2 0x1E6 CALLDATASIZE PUSH1 0x4 PUSH2 0x16AA JUMP JUMPDEST PUSH2 0x6DF JUMP JUMPDEST PUSH1 0x40 DUP1 MLOAD SWAP4 DUP5 MSTORE SWAP2 ISZERO ISZERO PUSH1 0x20 DUP5 ADD MSTORE SWAP1 DUP3 ADD MSTORE PUSH1 0x60 ADD PUSH2 0x18E JUMP JUMPDEST CALLVALUE DUP1 ISZERO PUSH2 0x212 JUMPI PUSH1 0x0 DUP1 REVERT JUMPDEST POP PUSH2 0x102 PUSH2 0x725 JUMP JUMPDEST CALLVALUE DUP1 ISZERO PUSH2 0x227 JUMPI PUSH1 0x0 DUP1 REVERT JUMPDEST POP PUSH1 0x1 SLOAD PUSH1 0x1 PUSH1 0x1 PUSH1 0xA0 SHL SUB AND JUMPDEST PUSH1 0x40 MLOAD PUSH1 0x1 PUSH1 0x1 PUSH1 0xA0 SHL SUB SWAP1 SWAP2 AND DUP2 MSTORE PUSH1 0x20 ADD PUSH2 0x18E JUMP JUMPDEST CALLVALUE DUP1 ISZERO PUSH2 0x259 JUMPI PUSH1 0x0 DUP1 REVERT JUMPDEST POP PUSH2 0x102 PUSH2 0x268 CALLDATASIZE PUSH1 0x4 PUSH2 0x17E5 JUMP JUMPDEST PUSH2 0x739 JUMP JUMPDEST PUSH2 0x102 PUSH2 0x27B CALLDATASIZE PUSH1 0x4 PUSH2 0x181D JUMP JUMPDEST PUSH2 0x7AB JUMP JUMPDEST CALLVALUE DUP1 ISZERO PUSH2 0x28C JUMPI PUSH1 0x0 DUP1 REVERT JUMPDEST POP PUSH1 0x4 SLOAD PUSH2 0x235 SWAP1 PUSH1 0x1 PUSH1 0x1 PUSH1 0xA0 SHL SUB AND DUP2 JUMP JUMPDEST CALLVALUE DUP1 ISZERO PUSH2 0x2AC JUMPI PUSH1 0x0 DUP1 REVERT JUMPDEST POP PUSH2 0x102 PUSH2 0x2BB CALLDATASIZE PUSH1 0x4 PUSH2 0x16CC JUMP JUMPDEST PUSH2 0xC1D JUMP JUMPDEST CALLVALUE DUP1 ISZERO PUSH2 0x2CC JUMPI PUSH1 0x0 DUP1 REVERT JUMPDEST POP PUSH2 0x2E0 PUSH2 0x2DB CALLDATASIZE PUSH1 0x4 PUSH2 0x16CC JUMP JUMPDEST PUSH2 0xDA9 JUMP JUMPDEST PUSH1 0x40 MLOAD PUSH2 0x18E SWAP2 SWAP1 PUSH2 0x18F7 JUMP JUMPDEST CALLVALUE DUP1 ISZERO PUSH2 0x2F9 JUMPI PUSH1 0x0 DUP1 REVERT JUMPDEST POP PUSH2 0x30D PUSH2 0x308 CALLDATASIZE PUSH1 0x4 PUSH2 0x16CC JUMP JUMPDEST PUSH2 0xE3A JUMP JUMPDEST PUSH1 0x40 MLOAD PUSH2 0x18E SWAP7 SWAP6 SWAP5 SWAP4 SWAP3 SWAP2 SWAP1 PUSH2 0x1952 JUMP JUMPDEST CALLVALUE DUP1 ISZERO PUSH2 0x32B JUMPI PUSH1 0x0 DUP1 REVERT JUMPDEST POP PUSH2 0x102 PUSH2 0x33A CALLDATASIZE PUSH1 0x4 PUSH2 0x17E5 JUMP JUMPDEST PUSH2 0xF48 JUMP JUMPDEST CALLVALUE DUP1 ISZERO PUSH2 0x34B JUMPI PUSH1 0x0 DUP1 REVERT JUMPDEST POP PUSH2 0x102 PUSH2 0x35A CALLDATASIZE PUSH1 0x4 PUSH2 0x1998 JUMP JUMPDEST PUSH2 0xF86 JUMP JUMPDEST PUSH2 0x367 PUSH2 0x1601 JUMP JUMPDEST PUSH1 0x0 DUP3 DUP2 MSTORE PUSH1 0x2 PUSH1 0x20 MSTORE PUSH1 0x40 SWAP1 KECCAK256 SLOAD DUP3 SWAP1 PUSH1 0x1 PUSH1 0x1 PUSH1 0xA0 SHL SUB AND PUSH2 0x3A6 JUMPI PUSH1 0x40 MLOAD PUSH3 0x461BCD PUSH1 0xE5 SHL DUP2 MSTORE PUSH1 0x4 ADD PUSH2 0x39D SWAP1 PUSH2 0x19D4 JUMP JUMPDEST PUSH1 0x40 MLOAD DUP1 SWAP2 SUB SWAP1 REVERT JUMPDEST PUSH1 0x0 DUP4 DUP2 MSTORE PUSH1 0x2 PUSH1 0x20 MSTORE PUSH1 0x40 SWAP1 KECCAK256 DUP1 SLOAD PUSH1 0x1 PUSH1 0x1 PUSH1 0xA0 SHL SUB AND CALLER EQ PUSH2 0x3FB JUMPI PUSH1 0x40 MLOAD PUSH3 0x461BCD PUSH1 0xE5 SHL DUP2 MSTORE PUSH1 0x20 PUSH1 0x4 DUP3 ADD MSTORE PUSH1 0xB PUSH1 0x24 DUP3 ADD MSTORE PUSH11 0x13DB9B1E4818DB1A595B9D PUSH1 0xAA SHL PUSH1 0x44 DUP3 ADD MSTORE PUSH1 0x64 ADD PUSH2 0x39D JUMP JUMPDEST PUSH1 0x1 PUSH1 0x4 DUP1 DUP4 ADD SLOAD PUSH1 0xFF AND SWAP1 DUP2 GT ISZERO PUSH2 0x416 JUMPI PUSH2 0x416 PUSH2 0x16E5 JUMP JUMPDEST EQ PUSH2 0x454 JUMPI PUSH1 0x40 MLOAD PUSH3 0x461BCD PUSH1 0xE5 SHL DUP2 MSTORE PUSH1 0x20 PUSH1 0x4 DUP3 ADD MSTORE PUSH1 0xE PUSH1 0x24 DUP3 ADD MSTORE PUSH14 0x496E76616C696420737461747573 PUSH1 0x90 SHL PUSH1 0x44 DUP3 ADD MSTORE PUSH1 0x64 ADD PUSH2 0x39D JUMP JUMPDEST PUSH1 0x4 DUP2 ADD SLOAD PUSH2 0x100 SWAP1 DIV PUSH1 0xFF AND ISZERO PUSH2 0x4A0 JUMPI PUSH1 0x40 MLOAD PUSH3 0x461BCD PUSH1 0xE5 SHL DUP2 MSTORE PUSH1 0x20 PUSH1 0x4 DUP3 ADD MSTORE PUSH1 0xF PUSH1 0x24 DUP3 ADD MSTORE PUSH15 0x115CD8DC9BDDC8191A5CDC1D5D1959 PUSH1 0x8A SHL PUSH1 0x44 DUP3 ADD MSTORE PUSH1 0x64 ADD PUSH2 0x39D JUMP JUMPDEST PUSH1 0x0 DUP5 DUP2 MSTORE PUSH1 0x3 PUSH1 0x20 MSTORE PUSH1 0x40 SWAP1 KECCAK256 SLOAD DUP4 LT PUSH2 0x4F1 JUMPI PUSH1 0x40 MLOAD PUSH3 0x461BCD PUSH1 0xE5 SHL DUP2 MSTORE PUSH1 0x20 PUSH1 0x4 DUP3 ADD MSTORE PUSH1 0x11 PUSH1 0x24 DUP3 ADD MSTORE PUSH17 0x496E76616C6964206D696C6573746F6E65 PUSH1 0x78 SHL PUSH1 0x44 DUP3 ADD MSTORE PUSH1 0x64 ADD PUSH2 0x39D JUMP JUMPDEST PUSH1 0x0 DUP5 DUP2 MSTORE PUSH1 0x3 PUSH1 0x20 MSTORE PUSH1 0x40 DUP2 KECCAK256 DUP1 SLOAD DUP6 SWAP1 DUP2 LT PUSH2 0x511 JUMPI PUSH2 0x511 PUSH2 0x1A03 JUMP JUMPDEST PUSH1 0x0 SWAP2 DUP3 MSTORE PUSH1 0x20 SWAP1 SWAP2 KECCAK256 PUSH1 0x3 SWAP1 SWAP2 MUL ADD PUSH1 0x1 DUP2 ADD SLOAD SWAP1 SWAP2 POP PUSH1 0xFF AND ISZERO PUSH2 0x56C JUMPI PUSH1 0x40 MLOAD PUSH3 0x461BCD PUSH1 0xE5 SHL DUP2 MSTORE PUSH1 0x20 PUSH1 0x4 DUP3 ADD MSTORE PUSH1 0x10 PUSH1 0x24 DUP3 ADD MSTORE PUSH16 0x105B1C9958591E48185C1C1C9BDD9959 PUSH1 0x82 SHL PUSH1 0x44 DUP3 ADD MSTORE PUSH1 0x64 ADD PUSH2 0x39D JUMP JUMPDEST PUSH1 0x1 DUP2 DUP2 ADD DUP1 SLOAD PUSH1 0xFF NOT AND SWAP1 SWAP2 OR SWAP1 SSTORE TIMESTAMP PUSH1 0x2 DUP3 ADD SSTORE DUP1 SLOAD PUSH1 0x3 DUP4 ADD DUP1 SLOAD PUSH1 0x0 SWAP1 PUSH2 0x598 SWAP1 DUP5 SWAP1 PUSH2 0x1A2F JUMP JUMPDEST SWAP1 SWAP2 SSTORE POP POP PUSH1 0x1 DUP3 ADD SLOAD DUP2 SLOAD PUSH1 0x40 MLOAD PUSH1 0x0 SWAP3 PUSH1 0x1 PUSH1 0x1 PUSH1 0xA0 SHL SUB AND SWAP2 SWAP1 DUP4 DUP2 DUP2 DUP2 DUP6 DUP8 GAS CALL SWAP3 POP POP POP RETURNDATASIZE DUP1 PUSH1 0x0 DUP2 EQ PUSH2 0x5ED JUMPI PUSH1 0x40 MLOAD SWAP2 POP PUSH1 0x1F NOT PUSH1 0x3F RETURNDATASIZE ADD AND DUP3 ADD PUSH1 0x40 MSTORE RETURNDATASIZE DUP3 MSTORE RETURNDATASIZE PUSH1 0x0 PUSH1 0x20 DUP5 ADD RETURNDATACOPY PUSH2 0x5F2 JUMP JUMPDEST PUSH1 0x60 SWAP2 POP JUMPDEST POP POP SWAP1 POP DUP1 PUSH2 0x635 JUMPI PUSH1 0x40 MLOAD PUSH3 0x461BCD PUSH1 0xE5 SHL DUP2 MSTORE PUSH1 0x20 PUSH1 0x4 DUP3 ADD MSTORE PUSH1 0xF PUSH1 0x24 DUP3 ADD MSTORE PUSH15 0x151C985B9CD9995C8819985A5B1959 PUSH1 0x8A SHL PUSH1 0x44 DUP3 ADD MSTORE PUSH1 0x64 ADD PUSH2 0x39D JUMP JUMPDEST DUP2 SLOAD PUSH1 0x40 MLOAD DUP8 SWAP2 PUSH32 0xF57EDBE6B21333C1A5CE476E82107E65EBDC53E0B7FB7C35FD0370DE4A4E09F SWAP2 PUSH2 0x670 SWAP2 DUP10 DUP3 MSTORE PUSH1 0x20 DUP3 ADD MSTORE PUSH1 0x40 ADD SWAP1 JUMP JUMPDEST PUSH1 0x40 MLOAD DUP1 SWAP2 SUB SWAP1 LOG2 PUSH1 0x1 DUP4 ADD SLOAD DUP3 SLOAD PUSH1 0x40 MLOAD SWAP1 DUP2 MSTORE PUSH1 0x1 PUSH1 0x1 PUSH1 0xA0 SHL SUB SWAP1 SWAP2 AND SWAP1 DUP8 SWAP1 PUSH1 0x0 DUP1 MLOAD PUSH1 0x20 PUSH2 0x1ABC DUP4 CODECOPY DUP2 MLOAD SWAP2 MSTORE SWAP1 PUSH1 0x20 ADD PUSH1 0x40 MLOAD DUP1 SWAP2 SUB SWAP1 LOG3 DUP3 PUSH1 0x2 ADD SLOAD DUP4 PUSH1 0x3 ADD SLOAD SUB PUSH2 0x6CD JUMPI PUSH1 0x4 DUP4 ADD DUP1 SLOAD PUSH1 0xFF NOT AND PUSH1 0x2 OR SWAP1 SSTORE JUMPDEST POP POP POP POP PUSH2 0x6DB PUSH1 0x1 PUSH1 0x0 SSTORE JUMP JUMPDEST POP POP JUMP JUMPDEST PUSH1 0x3 PUSH1 0x20 MSTORE DUP2 PUSH1 0x0 MSTORE PUSH1 0x40 PUSH1 0x0 KECCAK256 DUP2 DUP2 SLOAD DUP2 LT PUSH2 0x6FB JUMPI PUSH1 0x0 DUP1 REVERT JUMPDEST PUSH1 0x0 SWAP2 DUP3 MSTORE PUSH1 0x20 SWAP1 SWAP2 KECCAK256 PUSH1 0x3 SWAP1 SWAP2 MUL ADD DUP1 SLOAD PUSH1 0x1 DUP3 ADD SLOAD PUSH1 0x2 SWAP1 SWAP3 ADD SLOAD SWAP1 SWAP4 POP PUSH1 0xFF SWAP1 SWAP2 AND SWAP2 POP DUP4 JUMP JUMPDEST PUSH2 0x72D PUSH2 0x162B JUMP JUMPDEST PUSH2 0x737 PUSH1 0x0 PUSH2 0x1658 JUMP JUMPDEST JUMP JUMPDEST PUSH2 0x741 PUSH2 0x162B JUMP JUMPDEST PUSH1 0x1 PUSH1 0x1 PUSH1 0xA0 SHL SUB DUP2 AND PUSH2 0x789 JUMPI PUSH1 0x40 MLOAD PUSH3 0x461BCD PUSH1 0xE5 SHL DUP2 MSTORE PUSH1 0x20 PUSH1 0x4 DUP3 ADD MSTORE PUSH1 0xF PUSH1 0x24 DUP3 ADD MSTORE PUSH15 0x496E76616C69642061646472657373 PUSH1 0x88 SHL PUSH1 0x44 DUP3 ADD MSTORE PUSH1 0x64 ADD PUSH2 0x39D JUMP JUMPDEST PUSH1 0x4 DUP1 SLOAD PUSH1 0x1 PUSH1 0x1 PUSH1 0xA0 SHL SUB NOT AND PUSH1 0x1 PUSH1 0x1 PUSH1 0xA0 SHL SUB SWAP3 SWAP1 SWAP3 AND SWAP2 SWAP1 SWAP2 OR SWAP1 SSTORE JUMP JUMPDEST PUSH1 0x0 DUP4 DUP2 MSTORE PUSH1 0x2 PUSH1 0x20 MSTORE PUSH1 0x40 SWAP1 KECCAK256 SLOAD PUSH1 0x1 PUSH1 0x1 PUSH1 0xA0 SHL SUB AND ISZERO PUSH2 0x808 JUMPI PUSH1 0x40 MLOAD PUSH3 0x461BCD PUSH1 0xE5 SHL DUP2 MSTORE PUSH1 0x20 PUSH1 0x4 DUP3 ADD MSTORE PUSH1 0x15 PUSH1 0x24 DUP3 ADD MSTORE PUSH21 0x457363726F7720616C726561647920657869737473 PUSH1 0x58 SHL PUSH1 0x44 DUP3 ADD MSTORE PUSH1 0x64 ADD PUSH2 0x39D JUMP JUMPDEST PUSH1 0x1 PUSH1 0x1 PUSH1 0xA0 SHL SUB DUP3 AND PUSH2 0x853 JUMPI PUSH1 0x40 MLOAD PUSH3 0x461BCD PUSH1 0xE5 SHL DUP2 MSTORE PUSH1 0x20 PUSH1 0x4 DUP3 ADD MSTORE PUSH1 0x12 PUSH1 0x24 DUP3 ADD MSTORE PUSH18 0x24B73B30B634B210333932B2B630B731B2B9 PUSH1 0x71 SHL PUSH1 0x44 DUP3 ADD MSTORE PUSH1 0x64 ADD PUSH2 0x39D JUMP JUMPDEST PUSH1 0x0 DUP2 MLOAD GT PUSH2 0x896 JUMPI PUSH1 0x40 MLOAD PUSH3 0x461BCD PUSH1 0xE5 SHL DUP2 MSTORE PUSH1 0x20 PUSH1 0x4 DUP3 ADD MSTORE PUSH1 0xF PUSH1 0x24 DUP3 ADD MSTORE PUSH15 0x4E656564206D696C6573746F6E6573 PUSH1 0x88 SHL PUSH1 0x44 DUP3 ADD MSTORE PUSH1 0x64 ADD PUSH2 0x39D JUMP JUMPDEST CALLER PUSH1 0x1 PUSH1 0x1 PUSH1 0xA0 SHL SUB DUP4 AND SUB PUSH2 0x8E6 JUMPI PUSH1 0x40 MLOAD PUSH3 0x461BCD PUSH1 0xE5 SHL DUP2 MSTORE PUSH1 0x20 PUSH1 0x4 DUP3 ADD MSTORE PUSH1 0x15 PUSH1 0x24 DUP3 ADD MSTORE PUSH21 0x21B0B73737BA1032B9B1B937BB903A379039B2B633 PUSH1 0x59 SHL PUSH1 0x44 DUP3 ADD MSTORE PUSH1 0x64 ADD PUSH2 0x39D JUMP JUMPDEST PUSH1 0x0 DUP1 JUMPDEST DUP3 MLOAD DUP2 LT ISZERO PUSH2 0xA1D JUMPI PUSH1 0x0 DUP4 DUP3 DUP2 MLOAD DUP2 LT PUSH2 0x907 JUMPI PUSH2 0x907 PUSH2 0x1A03 JUMP JUMPDEST PUSH1 0x20 MUL PUSH1 0x20 ADD ADD MLOAD GT PUSH2 0x95C JUMPI PUSH1 0x40 MLOAD PUSH3 0x461BCD PUSH1 0xE5 SHL DUP2 MSTORE PUSH1 0x20 PUSH1 0x4 DUP3 ADD MSTORE PUSH1 0x18 PUSH1 0x24 DUP3 ADD MSTORE PUSH32 0x496E76616C6964206D696C6573746F6E6520616D6F756E740000000000000000 PUSH1 0x44 DUP3 ADD MSTORE PUSH1 0x64 ADD PUSH2 0x39D JUMP JUMPDEST DUP3 DUP2 DUP2 MLOAD DUP2 LT PUSH2 0x96E JUMPI PUSH2 0x96E PUSH2 0x1A03 JUMP JUMPDEST PUSH1 0x20 MUL PUSH1 0x20 ADD ADD MLOAD DUP3 PUSH2 0x981 SWAP2 SWAP1 PUSH2 0x1A2F JUMP JUMPDEST SWAP2 POP PUSH1 0x3 PUSH1 0x0 DUP7 DUP2 MSTORE PUSH1 0x20 ADD SWAP1 DUP2 MSTORE PUSH1 0x20 ADD PUSH1 0x0 KECCAK256 PUSH1 0x40 MLOAD DUP1 PUSH1 0x60 ADD PUSH1 0x40 MSTORE DUP1 DUP6 DUP5 DUP2 MLOAD DUP2 LT PUSH2 0x9B3 JUMPI PUSH2 0x9B3 PUSH2 0x1A03 JUMP JUMPDEST PUSH1 0x20 SWAP1 DUP2 MUL SWAP2 SWAP1 SWAP2 ADD DUP2 ADD MLOAD DUP3 MSTORE PUSH1 0x0 DUP3 DUP3 ADD DUP2 SWAP1 MSTORE PUSH1 0x40 SWAP3 DUP4 ADD DUP2 SWAP1 MSTORE DUP5 SLOAD PUSH1 0x1 DUP1 DUP3 ADD DUP8 SSTORE SWAP6 DUP3 MSTORE SWAP1 DUP3 SWAP1 KECCAK256 DUP5 MLOAD PUSH1 0x3 SWAP1 SWAP3 MUL ADD SWAP1 DUP2 SSTORE SWAP1 DUP4 ADD MLOAD SWAP4 DUP2 ADD DUP1 SLOAD PUSH1 0xFF NOT AND SWAP5 ISZERO ISZERO SWAP5 SWAP1 SWAP5 OR SWAP1 SWAP4 SSTORE ADD MLOAD PUSH1 0x2 SWAP1 SWAP2 ADD SSTORE DUP1 PUSH2 0xA15 DUP2 PUSH2 0x1A48 JUMP JUMPDEST SWAP2 POP POP PUSH2 0x8EA JUMP JUMPDEST POP DUP1 CALLVALUE EQ PUSH2 0xA65 JUMPI PUSH1 0x40 MLOAD PUSH3 0x461BCD PUSH1 0xE5 SHL DUP2 MSTORE PUSH1 0x20 PUSH1 0x4 DUP3 ADD MSTORE PUSH1 0x15 PUSH1 0x24 DUP3 ADD MSTORE PUSH21 0x125B98DBDC9C9958DD08185B5BDD5B9D081CD95B9D PUSH1 0x5A SHL PUSH1 0x44 DUP3 ADD MSTORE PUSH1 0x64 ADD PUSH2 0x39D JUMP JUMPDEST PUSH1 0x40 DUP1 MLOAD PUSH2 0x100 DUP2 ADD DUP3 MSTORE CALLER DUP2 MSTORE PUSH1 0x1 PUSH1 0x1 PUSH1 0xA0 SHL SUB DUP6 AND PUSH1 0x20 DUP3 ADD MSTORE SWAP1 DUP2 ADD DUP3 SWAP1 MSTORE PUSH1 0x0 PUSH1 0x60 DUP3 ADD MSTORE PUSH1 0x80 DUP2 ADD PUSH1 0x1 DUP2 MSTORE PUSH1 0x0 PUSH1 0x20 DUP3 ADD DUP2 SWAP1 MSTORE PUSH1 0x40 SWAP1 SWAP2 ADD SWAP1 DUP2 MSTORE TIMESTAMP PUSH1 0x20 SWAP2 DUP3 ADD MSTORE PUSH1 0x0 DUP7 DUP2 MSTORE PUSH1 0x2 DUP1 DUP4 MSTORE PUSH1 0x40 SWAP2 DUP3 SWAP1 KECCAK256 DUP5 MLOAD DUP2 SLOAD PUSH1 0x1 PUSH1 0x1 PUSH1 0xA0 SHL SUB SWAP2 DUP3 AND PUSH1 0x1 PUSH1 0x1 PUSH1 0xA0 SHL SUB NOT SWAP2 DUP3 AND OR DUP4 SSTORE SWAP5 DUP7 ADD MLOAD PUSH1 0x1 DUP1 DUP5 ADD DUP1 SLOAD SWAP3 SWAP1 SWAP4 AND SWAP2 SWAP1 SWAP7 AND OR SWAP1 SSTORE SWAP2 DUP5 ADD MLOAD SWAP1 DUP3 ADD SSTORE PUSH1 0x60 DUP4 ADD MLOAD PUSH1 0x3 DUP3 ADD SSTORE PUSH1 0x80 DUP4 ADD MLOAD PUSH1 0x4 DUP1 DUP4 ADD DUP1 SLOAD SWAP4 SWAP5 SWAP3 SWAP4 SWAP1 SWAP3 PUSH1 0xFF NOT SWAP1 SWAP2 AND SWAP2 DUP5 SWAP1 DUP2 GT ISZERO PUSH2 0xB2F JUMPI PUSH2 0xB2F PUSH2 0x16E5 JUMP JUMPDEST MUL OR SWAP1 SSTORE POP PUSH1 0xA0 DUP3 ADD MLOAD PUSH1 0x4 DUP3 ADD DUP1 SLOAD SWAP2 ISZERO ISZERO PUSH2 0x100 MUL PUSH2 0xFF00 NOT DUP4 AND DUP2 OR DUP3 SSTORE PUSH1 0xC0 DUP6 ADD MLOAD SWAP3 PUSH3 0xFF0000 NOT SWAP1 SWAP2 AND PUSH3 0xFFFF00 NOT SWAP1 SWAP2 AND OR PUSH3 0x10000 DUP4 PUSH1 0x3 DUP2 GT ISZERO PUSH2 0xB7D JUMPI PUSH2 0xB7D PUSH2 0x16E5 JUMP JUMPDEST MUL OR SWAP1 SSTORE POP PUSH1 0xE0 DUP3 ADD MLOAD DUP2 PUSH1 0x5 ADD SSTORE SWAP1 POP POP DUP3 PUSH1 0x1 PUSH1 0x1 PUSH1 0xA0 SHL SUB AND CALLER PUSH1 0x1 PUSH1 0x1 PUSH1 0xA0 SHL SUB AND DUP6 PUSH32 0xDD968C277D9DC6B36B6EC2B638324C3D937882C64CA109440BC050EBF26CB07 DUP5 PUSH1 0x40 MLOAD PUSH2 0xBD5 SWAP2 DUP2 MSTORE PUSH1 0x20 ADD SWAP1 JUMP JUMPDEST PUSH1 0x40 MLOAD DUP1 SWAP2 SUB SWAP1 LOG4 DUP4 PUSH32 0x8BC5E5162BA9D1A558B2D254F4739D54C8D7051230419652B328670BD68FC37 DUP3 PUSH1 0x40 MLOAD PUSH2 0xC0F SWAP2 DUP2 MSTORE PUSH1 0x20 ADD SWAP1 JUMP JUMPDEST PUSH1 0x40 MLOAD DUP1 SWAP2 SUB SWAP1 LOG2 POP POP POP POP JUMP JUMPDEST PUSH1 0x0 DUP2 DUP2 MSTORE PUSH1 0x2 PUSH1 0x20 MSTORE PUSH1 0x40 SWAP1 KECCAK256 SLOAD DUP2 SWAP1 PUSH1 0x1 PUSH1 0x1 PUSH1 0xA0 SHL SUB AND PUSH2 0xC53 JUMPI PUSH1 0x40 MLOAD PUSH3 0x461BCD PUSH1 0xE5 SHL DUP2 MSTORE PUSH1 0x4 ADD PUSH2 0x39D SWAP1 PUSH2 0x19D4 JUMP JUMPDEST PUSH1 0x0 DUP3 DUP2 MSTORE PUSH1 0x2 PUSH1 0x20 MSTORE PUSH1 0x40 SWAP1 KECCAK256 DUP1 SLOAD PUSH1 0x1 PUSH1 0x1 PUSH1 0xA0 SHL SUB AND CALLER EQ DUP1 PUSH2 0xC85 JUMPI POP PUSH1 0x1 DUP2 ADD SLOAD PUSH1 0x1 PUSH1 0x1 PUSH1 0xA0 SHL SUB AND CALLER EQ JUMPDEST PUSH2 0xCC2 JUMPI PUSH1 0x40 MLOAD PUSH3 0x461BCD PUSH1 0xE5 SHL DUP2 MSTORE PUSH1 0x20 PUSH1 0x4 DUP3 ADD MSTORE PUSH1 0xE PUSH1 0x24 DUP3 ADD MSTORE PUSH14 0x139BDD08185D5D1A1BDC9A5E9959 PUSH1 0x92 SHL PUSH1 0x44 DUP3 ADD MSTORE PUSH1 0x64 ADD PUSH2 0x39D JUMP JUMPDEST PUSH1 0x1 PUSH1 0x4 DUP1 DUP4 ADD SLOAD PUSH1 0xFF AND SWAP1 DUP2 GT ISZERO PUSH2 0xCDD JUMPI PUSH2 0xCDD PUSH2 0x16E5 JUMP JUMPDEST EQ PUSH2 0xD1B JUMPI PUSH1 0x40 MLOAD PUSH3 0x461BCD PUSH1 0xE5 SHL DUP2 MSTORE PUSH1 0x20 PUSH1 0x4 DUP3 ADD MSTORE PUSH1 0xE PUSH1 0x24 DUP3 ADD MSTORE PUSH14 0x496E76616C696420737461747573 PUSH1 0x90 SHL PUSH1 0x44 DUP3 ADD MSTORE PUSH1 0x64 ADD PUSH2 0x39D JUMP JUMPDEST PUSH1 0x4 DUP2 ADD SLOAD PUSH2 0x100 SWAP1 DIV PUSH1 0xFF AND ISZERO PUSH2 0xD68 JUMPI PUSH1 0x40 MLOAD PUSH3 0x461BCD PUSH1 0xE5 SHL DUP2 MSTORE PUSH1 0x20 PUSH1 0x4 DUP3 ADD MSTORE PUSH1 0x10 PUSH1 0x24 DUP3 ADD MSTORE PUSH16 0x105B1C9958591E48191A5CDC1D5D1959 PUSH1 0x82 SHL PUSH1 0x44 DUP3 ADD MSTORE PUSH1 0x64 ADD PUSH2 0x39D JUMP JUMPDEST PUSH1 0x4 DUP2 ADD DUP1 SLOAD PUSH2 0xFFFF NOT AND PUSH2 0x104 OR SWAP1 SSTORE PUSH1 0x40 MLOAD DUP4 SWAP1 PUSH32 0x384768A28D40BB1EE9C7940DFDD5B551453A3E1C5CBD958A695D82DC8E5C326A SWAP1 PUSH1 0x0 SWAP1 LOG2 POP POP POP JUMP JUMPDEST PUSH1 0x60 PUSH1 0x3 PUSH1 0x0 DUP4 DUP2 MSTORE PUSH1 0x20 ADD SWAP1 DUP2 MSTORE PUSH1 0x20 ADD PUSH1 0x0 KECCAK256 DUP1 SLOAD DUP1 PUSH1 0x20 MUL PUSH1 0x20 ADD PUSH1 0x40 MLOAD SWAP1 DUP2 ADD PUSH1 0x40 MSTORE DUP1 SWAP3 SWAP2 SWAP1 DUP2 DUP2 MSTORE PUSH1 0x20 ADD PUSH1 0x0 SWAP1 JUMPDEST DUP3 DUP3 LT ISZERO PUSH2 0xE2F JUMPI PUSH1 0x0 DUP5 DUP2 MSTORE PUSH1 0x20 SWAP1 DUP2 SWAP1 KECCAK256 PUSH1 0x40 DUP1 MLOAD PUSH1 0x60 DUP2 ADD DUP3 MSTORE PUSH1 0x3 DUP7 MUL SWAP1 SWAP3 ADD DUP1 SLOAD DUP4 MSTORE PUSH1 0x1 DUP1 DUP3 ADD SLOAD PUSH1 0xFF AND ISZERO ISZERO DUP5 DUP7 ADD MSTORE PUSH1 0x2 SWAP1 SWAP2 ADD SLOAD SWAP2 DUP4 ADD SWAP2 SWAP1 SWAP2 MSTORE SWAP1 DUP4 MSTORE SWAP1 SWAP3 ADD SWAP2 ADD PUSH2 0xDDE JUMP JUMPDEST POP POP POP POP SWAP1 POP SWAP2 SWAP1 POP JUMP JUMPDEST PUSH1 0x0 DUP2 DUP2 MSTORE PUSH1 0x2 PUSH1 0x20 DUP2 DUP2 MSTORE PUSH1 0x40 DUP1 DUP5 KECCAK256 DUP2 MLOAD PUSH2 0x100 DUP2 ADD DUP4 MSTORE DUP2 SLOAD PUSH1 0x1 PUSH1 0x1 PUSH1 0xA0 SHL SUB SWAP1 DUP2 AND DUP3 MSTORE PUSH1 0x1 DUP4 ADD SLOAD AND SWAP4 DUP2 ADD SWAP4 SWAP1 SWAP4 MSTORE SWAP3 DUP4 ADD SLOAD SWAP1 DUP3 ADD MSTORE PUSH1 0x3 DUP3 ADD SLOAD PUSH1 0x60 DUP3 ADD MSTORE PUSH1 0x4 DUP1 DUP4 ADD SLOAD DUP5 SWAP4 DUP5 SWAP4 DUP5 SWAP4 DUP5 SWAP4 DUP5 SWAP4 DUP5 SWAP4 SWAP3 SWAP1 SWAP2 PUSH1 0x80 DUP5 ADD SWAP2 PUSH1 0xFF SWAP1 SWAP2 AND SWAP1 DUP2 GT ISZERO PUSH2 0xEB1 JUMPI PUSH2 0xEB1 PUSH2 0x16E5 JUMP JUMPDEST PUSH1 0x4 DUP2 GT ISZERO PUSH2 0xEC2 JUMPI PUSH2 0xEC2 PUSH2 0x16E5 JUMP JUMPDEST DUP2 MSTORE PUSH1 0x4 DUP3 ADD SLOAD PUSH1 0xFF PUSH2 0x100 DUP3 DIV DUP2 AND ISZERO ISZERO PUSH1 0x20 DUP5 ADD MSTORE PUSH1 0x40 SWAP1 SWAP3 ADD SWAP2 PUSH3 0x10000 SWAP1 SWAP2 DIV AND PUSH1 0x3 DUP2 GT ISZERO PUSH2 0xEF8 JUMPI PUSH2 0xEF8 PUSH2 0x16E5 JUMP JUMPDEST PUSH1 0x3 DUP2 GT ISZERO PUSH2 0xF09 JUMPI PUSH2 0xF09 PUSH2 0x16E5 JUMP JUMPDEST DUP2 MSTORE PUSH1 0x5 SWAP2 SWAP1 SWAP2 ADD SLOAD PUSH1 0x20 SWAP2 DUP3 ADD MSTORE DUP2 MLOAD SWAP1 DUP3 ADD MLOAD PUSH1 0x40 DUP4 ADD MLOAD PUSH1 0x60 DUP5 ADD MLOAD PUSH1 0x80 DUP6 ADD MLOAD PUSH1 0xA0 SWAP1 SWAP6 ADD MLOAD SWAP4 SWAP14 SWAP3 SWAP13 POP SWAP1 SWAP11 POP SWAP9 POP SWAP2 SWAP7 POP SWAP5 POP SWAP3 POP POP POP JUMP JUMPDEST PUSH2 0xF50 PUSH2 0x162B JUMP JUMPDEST PUSH1 0x1 PUSH1 0x1 PUSH1 0xA0 SHL SUB DUP2 AND PUSH2 0xF7A JUMPI PUSH1 0x40 MLOAD PUSH4 0x1E4FBDF7 PUSH1 0xE0 SHL DUP2 MSTORE PUSH1 0x0 PUSH1 0x4 DUP3 ADD MSTORE PUSH1 0x24 ADD PUSH2 0x39D JUMP JUMPDEST PUSH2 0xF83 DUP2 PUSH2 0x1658 JUMP JUMPDEST POP JUMP JUMPDEST PUSH1 0x4 SLOAD PUSH1 0x1 PUSH1 0x1 PUSH1 0xA0 SHL SUB AND CALLER EQ PUSH2 0xFD6 JUMPI PUSH1 0x40 MLOAD PUSH3 0x461BCD PUSH1 0xE5 SHL DUP2 MSTORE PUSH1 0x20 PUSH1 0x4 DUP3 ADD MSTORE PUSH1 0x13 PUSH1 0x24 DUP3 ADD MSTORE PUSH19 0x27B7363C90383630BA3337B9369030B236B4B7 PUSH1 0x69 SHL PUSH1 0x44 DUP3 ADD MSTORE PUSH1 0x64 ADD PUSH2 0x39D JUMP JUMPDEST PUSH2 0xFDE PUSH2 0x1601 JUMP JUMPDEST PUSH1 0x0 DUP4 DUP2 MSTORE PUSH1 0x2 PUSH1 0x20 MSTORE PUSH1 0x40 SWAP1 KECCAK256 SLOAD DUP4 SWAP1 PUSH1 0x1 PUSH1 0x1 PUSH1 0xA0 SHL SUB AND PUSH2 0x1014 JUMPI PUSH1 0x40 MLOAD PUSH3 0x461BCD PUSH1 0xE5 SHL DUP2 MSTORE PUSH1 0x4 ADD PUSH2 0x39D SWAP1 PUSH2 0x19D4 JUMP JUMPDEST PUSH1 0x0 DUP5 DUP2 MSTORE PUSH1 0x2 PUSH1 0x20 MSTORE PUSH1 0x40 SWAP1 KECCAK256 PUSH1 0x4 DUP2 ADD SLOAD PUSH2 0x100 SWAP1 DIV PUSH1 0xFF AND PUSH2 0x106F JUMPI PUSH1 0x40 MLOAD PUSH3 0x461BCD PUSH1 0xE5 SHL DUP2 MSTORE PUSH1 0x20 PUSH1 0x4 DUP3 ADD MSTORE PUSH1 0x11 PUSH1 0x24 DUP3 ADD MSTORE PUSH17 0x4E6F206163746976652064697370757465 PUSH1 0x78 SHL PUSH1 0x44 DUP3 ADD MSTORE PUSH1 0x64 ADD PUSH2 0x39D JUMP JUMPDEST PUSH1 0x0 DUP5 PUSH1 0x3 DUP2 GT ISZERO PUSH2 0x1083 JUMPI PUSH2 0x1083 PUSH2 0x16E5 JUMP JUMPDEST SUB PUSH2 0x10C2 JUMPI PUSH1 0x40 MLOAD PUSH3 0x461BCD PUSH1 0xE5 SHL DUP2 MSTORE PUSH1 0x20 PUSH1 0x4 DUP3 ADD MSTORE PUSH1 0xF PUSH1 0x24 DUP3 ADD MSTORE PUSH15 0x496E76616C6964206F7574636F6D65 PUSH1 0x88 SHL PUSH1 0x44 DUP3 ADD MSTORE PUSH1 0x64 ADD PUSH2 0x39D JUMP JUMPDEST PUSH1 0x0 DUP2 PUSH1 0x3 ADD SLOAD DUP3 PUSH1 0x2 ADD SLOAD PUSH2 0x10D8 SWAP2 SWAP1 PUSH2 0x1A61 JUMP JUMPDEST SWAP1 POP PUSH1 0x0 DUP2 GT PUSH2 0x1123 JUMPI PUSH1 0x40 MLOAD PUSH3 0x461BCD PUSH1 0xE5 SHL DUP2 MSTORE PUSH1 0x20 PUSH1 0x4 DUP3 ADD MSTORE PUSH1 0x16 PUSH1 0x24 DUP3 ADD MSTORE PUSH22 0x4E6F2066756E647320746F2064697374726962757465 PUSH1 0x50 SHL PUSH1 0x44 DUP3 ADD MSTORE PUSH1 0x64 ADD PUSH2 0x39D JUMP JUMPDEST PUSH1 0x4 DUP3 ADD DUP1 SLOAD PUSH2 0xFF00 NOT DUP2 AND DUP3 SSTORE DUP7 SWAP2 SWAP1 PUSH3 0xFFFF00 NOT AND PUSH3 0x10000 DUP4 PUSH1 0x3 DUP2 GT ISZERO PUSH2 0x1150 JUMPI PUSH2 0x1150 PUSH2 0x16E5 JUMP JUMPDEST MUL OR SWAP1 SSTORE POP PUSH1 0x1 DUP6 PUSH1 0x3 DUP2 GT ISZERO PUSH2 0x1169 JUMPI PUSH2 0x1169 PUSH2 0x16E5 JUMP JUMPDEST SUB PUSH2 0x1260 JUMPI PUSH1 0x2 DUP3 ADD SLOAD PUSH1 0x3 DUP4 ADD SSTORE PUSH1 0x1 DUP3 ADD SLOAD PUSH1 0x40 MLOAD PUSH1 0x0 SWAP2 PUSH1 0x1 PUSH1 0x1 PUSH1 0xA0 SHL SUB AND SWAP1 DUP4 SWAP1 DUP4 DUP2 DUP2 DUP2 DUP6 DUP8 GAS CALL SWAP3 POP POP POP RETURNDATASIZE DUP1 PUSH1 0x0 DUP2 EQ PUSH2 0x11C7 JUMPI PUSH1 0x40 MLOAD SWAP2 POP PUSH1 0x1F NOT PUSH1 0x3F RETURNDATASIZE ADD AND DUP3 ADD PUSH1 0x40 MSTORE RETURNDATASIZE DUP3 MSTORE RETURNDATASIZE PUSH1 0x0 PUSH1 0x20 DUP5 ADD RETURNDATACOPY PUSH2 0x11CC JUMP JUMPDEST PUSH1 0x60 SWAP2 POP JUMPDEST POP POP SWAP1 POP DUP1 PUSH2 0x120F JUMPI PUSH1 0x40 MLOAD PUSH3 0x461BCD PUSH1 0xE5 SHL DUP2 MSTORE PUSH1 0x20 PUSH1 0x4 DUP3 ADD MSTORE PUSH1 0xF PUSH1 0x24 DUP3 ADD MSTORE PUSH15 0x151C985B9CD9995C8819985A5B1959 PUSH1 0x8A SHL PUSH1 0x44 DUP3 ADD MSTORE PUSH1 0x64 ADD PUSH2 0x39D JUMP JUMPDEST PUSH1 0x1 DUP4 ADD SLOAD PUSH1 0x40 MLOAD DUP4 DUP2 MSTORE PUSH1 0x1 PUSH1 0x1 PUSH1 0xA0 SHL SUB SWAP1 SWAP2 AND SWAP1 DUP9 SWAP1 PUSH1 0x0 DUP1 MLOAD PUSH1 0x20 PUSH2 0x1ABC DUP4 CODECOPY DUP2 MLOAD SWAP2 MSTORE SWAP1 PUSH1 0x20 ADD PUSH1 0x40 MLOAD DUP1 SWAP2 SUB SWAP1 LOG3 PUSH1 0x4 DUP4 ADD DUP1 SLOAD PUSH1 0x2 SWAP2 SWAP1 PUSH1 0xFF NOT AND PUSH1 0x1 DUP4 JUMPDEST MUL OR SWAP1 SSTORE POP POP PUSH2 0x15B7 JUMP JUMPDEST PUSH1 0x2 DUP6 PUSH1 0x3 DUP2 GT ISZERO PUSH2 0x1274 JUMPI PUSH2 0x1274 PUSH2 0x16E5 JUMP JUMPDEST SUB PUSH2 0x1352 JUMPI DUP2 SLOAD PUSH1 0x40 MLOAD PUSH1 0x0 SWAP2 PUSH1 0x1 PUSH1 0x1 PUSH1 0xA0 SHL SUB AND SWAP1 DUP4 SWAP1 DUP4 DUP2 DUP2 DUP2 DUP6 DUP8 GAS CALL SWAP3 POP POP POP RETURNDATASIZE DUP1 PUSH1 0x0 DUP2 EQ PUSH2 0x12C5 JUMPI PUSH1 0x40 MLOAD SWAP2 POP PUSH1 0x1F NOT PUSH1 0x3F RETURNDATASIZE ADD AND DUP3 ADD PUSH1 0x40 MSTORE RETURNDATASIZE DUP3 MSTORE RETURNDATASIZE PUSH1 0x0 PUSH1 0x20 DUP5 ADD RETURNDATACOPY PUSH2 0x12CA JUMP JUMPDEST PUSH1 0x60 SWAP2 POP JUMPDEST POP POP SWAP1 POP DUP1 PUSH2 0x130B JUMPI PUSH1 0x40 MLOAD PUSH3 0x461BCD PUSH1 0xE5 SHL DUP2 MSTORE PUSH1 0x20 PUSH1 0x4 DUP3 ADD MSTORE PUSH1 0xD PUSH1 0x24 DUP3 ADD MSTORE PUSH13 0x1499599D5B990819985A5B1959 PUSH1 0x9A SHL PUSH1 0x44 DUP3 ADD MSTORE PUSH1 0x64 ADD PUSH2 0x39D JUMP JUMPDEST DUP3 SLOAD PUSH1 0x40 MLOAD DUP4 DUP2 MSTORE PUSH1 0x1 PUSH1 0x1 PUSH1 0xA0 SHL SUB SWAP1 SWAP2 AND SWAP1 DUP9 SWAP1 PUSH1 0x0 DUP1 MLOAD PUSH1 0x20 PUSH2 0x1ABC DUP4 CODECOPY DUP2 MLOAD SWAP2 MSTORE SWAP1 PUSH1 0x20 ADD PUSH1 0x40 MLOAD DUP1 SWAP2 SUB SWAP1 LOG3 PUSH1 0x4 DUP4 ADD DUP1 SLOAD PUSH1 0x3 SWAP2 SWAP1 PUSH1 0xFF NOT AND PUSH1 0x1 DUP4 PUSH2 0x1255 JUMP JUMPDEST PUSH1 0x3 DUP6 PUSH1 0x3 DUP2 GT ISZERO PUSH2 0x1366 JUMPI PUSH2 0x1366 PUSH2 0x16E5 JUMP JUMPDEST SUB PUSH2 0x15B7 JUMPI PUSH1 0x64 DUP5 GT ISZERO PUSH2 0x13B1 JUMPI PUSH1 0x40 MLOAD PUSH3 0x461BCD PUSH1 0xE5 SHL DUP2 MSTORE PUSH1 0x20 PUSH1 0x4 DUP3 ADD MSTORE PUSH1 0x12 PUSH1 0x24 DUP3 ADD MSTORE PUSH18 0x496E76616C69642070657263656E74616765 PUSH1 0x70 SHL PUSH1 0x44 DUP3 ADD MSTORE PUSH1 0x64 ADD PUSH2 0x39D JUMP JUMPDEST PUSH1 0x0 PUSH1 0x64 PUSH2 0x13BF DUP7 DUP5 PUSH2 0x1A74 JUMP JUMPDEST PUSH2 0x13C9 SWAP2 SWAP1 PUSH2 0x1A8B JUMP JUMPDEST SWAP1 POP PUSH1 0x0 PUSH2 0x13D7 DUP3 DUP5 PUSH2 0x1A61 JUMP JUMPDEST SWAP1 POP DUP2 ISZERO PUSH2 0x14BA JUMPI PUSH1 0x1 DUP5 ADD SLOAD PUSH1 0x40 MLOAD PUSH1 0x0 SWAP2 PUSH1 0x1 PUSH1 0x1 PUSH1 0xA0 SHL SUB AND SWAP1 DUP5 SWAP1 DUP4 DUP2 DUP2 DUP2 DUP6 DUP8 GAS CALL SWAP3 POP POP POP RETURNDATASIZE DUP1 PUSH1 0x0 DUP2 EQ PUSH2 0x142E JUMPI PUSH1 0x40 MLOAD SWAP2 POP PUSH1 0x1F NOT PUSH1 0x3F RETURNDATASIZE ADD AND DUP3 ADD PUSH1 0x40 MSTORE RETURNDATASIZE DUP3 MSTORE RETURNDATASIZE PUSH1 0x0 PUSH1 0x20 DUP5 ADD RETURNDATACOPY PUSH2 0x1433 JUMP JUMPDEST PUSH1 0x60 SWAP2 POP JUMPDEST POP POP SWAP1 POP DUP1 PUSH2 0x1484 JUMPI PUSH1 0x40 MLOAD PUSH3 0x461BCD PUSH1 0xE5 SHL DUP2 MSTORE PUSH1 0x20 PUSH1 0x4 DUP3 ADD MSTORE PUSH1 0x1A PUSH1 0x24 DUP3 ADD MSTORE PUSH32 0x467265656C616E636572207472616E73666572206661696C6564000000000000 PUSH1 0x44 DUP3 ADD MSTORE PUSH1 0x64 ADD PUSH2 0x39D JUMP JUMPDEST PUSH1 0x1 DUP6 ADD SLOAD PUSH1 0x40 MLOAD DUP5 DUP2 MSTORE PUSH1 0x1 PUSH1 0x1 PUSH1 0xA0 SHL SUB SWAP1 SWAP2 AND SWAP1 DUP11 SWAP1 PUSH1 0x0 DUP1 MLOAD PUSH1 0x20 PUSH2 0x1ABC DUP4 CODECOPY DUP2 MLOAD SWAP2 MSTORE SWAP1 PUSH1 0x20 ADD PUSH1 0x40 MLOAD DUP1 SWAP2 SUB SWAP1 LOG3 POP JUMPDEST DUP1 ISZERO PUSH2 0x158C JUMPI DUP4 SLOAD PUSH1 0x40 MLOAD PUSH1 0x0 SWAP2 PUSH1 0x1 PUSH1 0x1 PUSH1 0xA0 SHL SUB AND SWAP1 DUP4 SWAP1 DUP4 DUP2 DUP2 DUP2 DUP6 DUP8 GAS CALL SWAP3 POP POP POP RETURNDATASIZE DUP1 PUSH1 0x0 DUP2 EQ PUSH2 0x150C JUMPI PUSH1 0x40 MLOAD SWAP2 POP PUSH1 0x1F NOT PUSH1 0x3F RETURNDATASIZE ADD AND DUP3 ADD PUSH1 0x40 MSTORE RETURNDATASIZE DUP3 MSTORE RETURNDATASIZE PUSH1 0x0 PUSH1 0x20 DUP5 ADD RETURNDATACOPY PUSH2 0x1511 JUMP JUMPDEST PUSH1 0x60 SWAP2 POP JUMPDEST POP POP SWAP1 POP DUP1 PUSH2 0x1559 JUMPI PUSH1 0x40 MLOAD PUSH3 0x461BCD PUSH1 0xE5 SHL DUP2 MSTORE PUSH1 0x20 PUSH1 0x4 DUP3 ADD MSTORE PUSH1 0x14 PUSH1 0x24 DUP3 ADD MSTORE PUSH20 0x10DB1A595B9D081C99599D5B990819985A5B1959 PUSH1 0x62 SHL PUSH1 0x44 DUP3 ADD MSTORE PUSH1 0x64 ADD PUSH2 0x39D JUMP JUMPDEST DUP5 SLOAD PUSH1 0x40 MLOAD DUP4 DUP2 MSTORE PUSH1 0x1 PUSH1 0x1 PUSH1 0xA0 SHL SUB SWAP1 SWAP2 AND SWAP1 DUP11 SWAP1 PUSH1 0x0 DUP1 MLOAD PUSH1 0x20 PUSH2 0x1ABC DUP4 CODECOPY DUP2 MLOAD SWAP2 MSTORE SWAP1 PUSH1 0x20 ADD PUSH1 0x40 MLOAD DUP1 SWAP2 SUB SWAP1 LOG3 POP JUMPDEST DUP2 DUP5 PUSH1 0x3 ADD PUSH1 0x0 DUP3 DUP3 SLOAD PUSH2 0x15A0 SWAP2 SWAP1 PUSH2 0x1A2F JUMP JUMPDEST SWAP1 SWAP2 SSTORE POP POP POP POP PUSH1 0x4 DUP3 ADD DUP1 SLOAD PUSH1 0xFF NOT AND PUSH1 0x2 OR SWAP1 SSTORE JUMPDEST DUP6 PUSH32 0xA168B993FC74606982B54F62FACD64A9642FC31797B78C5B503B4116F3C8388 DUP7 PUSH1 0x40 MLOAD PUSH2 0x15E7 SWAP2 SWAP1 PUSH2 0x1AAD JUMP JUMPDEST PUSH1 0x40 MLOAD DUP1 SWAP2 SUB SWAP1 LOG2 POP POP POP PUSH2 0x15FC PUSH1 0x1 PUSH1 0x0 SSTORE JUMP JUMPDEST POP POP POP JUMP JUMPDEST PUSH1 0x2 PUSH1 0x0 SLOAD SUB PUSH2 0x1624 JUMPI PUSH1 0x40 MLOAD PUSH4 0x3EE5AEB5 PUSH1 0xE0 SHL DUP2 MSTORE PUSH1 0x4 ADD PUSH1 0x40 MLOAD DUP1 SWAP2 SUB SWAP1 REVERT JUMPDEST PUSH1 0x2 PUSH1 0x0 SSTORE JUMP JUMPDEST PUSH1 0x1 SLOAD PUSH1 0x1 PUSH1 0x1 PUSH1 0xA0 SHL SUB AND CALLER EQ PUSH2 0x737 JUMPI PUSH1 0x40 MLOAD PUSH4 0x118CDAA7 PUSH1 0xE0 SHL DUP2 MSTORE CALLER PUSH1 0x4 DUP3 ADD MSTORE PUSH1 0x24 ADD PUSH2 0x39D JUMP JUMPDEST PUSH1 0x1 DUP1 SLOAD PUSH1 0x1 PUSH1 0x1 PUSH1 0xA0 SHL SUB DUP4 DUP2 AND PUSH1 0x1 PUSH1 0x1 PUSH1 0xA0 SHL SUB NOT DUP4 AND DUP2 OR SWAP1 SWAP4 SSTORE PUSH1 0x40 MLOAD SWAP2 AND SWAP2 SWAP1 DUP3 SWAP1 PUSH32 0x8BE0079C531659141344CD1FD0A4F28419497F9722A3DAAFE3B4186F6B6457E0 SWAP1 PUSH1 0x0 SWAP1 LOG3 POP POP JUMP JUMPDEST PUSH1 0x0 DUP1 PUSH1 0x40 DUP4 DUP6 SUB SLT ISZERO PUSH2 0x16BD JUMPI PUSH1 0x0 DUP1 REVERT JUMPDEST POP POP DUP1 CALLDATALOAD SWAP3 PUSH1 0x20 SWAP1 SWAP2 ADD CALLDATALOAD SWAP2 POP JUMP JUMPDEST PUSH1 0x0 PUSH1 0x20 DUP3 DUP5 SUB SLT ISZERO PUSH2 0x16DE JUMPI PUSH1 0x0 DUP1 REVERT JUMPDEST POP CALLDATALOAD SWAP2 SWAP1 POP JUMP JUMPDEST PUSH4 0x4E487B71 PUSH1 0xE0 SHL PUSH1 0x0 MSTORE PUSH1 0x21 PUSH1 0x4 MSTORE PUSH1 0x24 PUSH1 0x0 REVERT JUMPDEST PUSH1 0x5 DUP2 LT PUSH2 0x170B JUMPI PUSH2 0x170B PUSH2 0x16E5 JUMP JUMPDEST SWAP1 MSTORE JUMP JUMPDEST PUSH1 0x4 DUP2 LT PUSH2 0x170B JUMPI PUSH2 0x170B PUSH2 0x16E5 JUMP JUMPDEST PUSH1 0x1 PUSH1 0x1 PUSH1 0xA0 SHL SUB DUP10 DUP2 AND DUP3 MSTORE DUP9 AND PUSH1 0x20 DUP3 ADD MSTORE PUSH1 0x40 DUP2 ADD DUP8 SWAP1 MSTORE PUSH1 0x60 DUP2 ADD DUP7 SWAP1 MSTORE PUSH2 0x100 DUP2 ADD PUSH2 0x1753 PUSH1 0x80 DUP4 ADD DUP8 PUSH2 0x16FB JUMP JUMPDEST DUP5 ISZERO ISZERO PUSH1 0xA0 DUP4 ADD MSTORE PUSH2 0x1768 PUSH1 0xC0 DUP4 ADD DUP6 PUSH2 0x170F JUMP JUMPDEST DUP3 PUSH1 0xE0 DUP4 ADD MSTORE SWAP10 SWAP9 POP POP POP POP POP POP POP POP POP JUMP JUMPDEST PUSH1 0x0 PUSH1 0x20 DUP1 DUP4 MSTORE DUP4 MLOAD DUP1 DUP3 DUP6 ADD MSTORE PUSH1 0x0 JUMPDEST DUP2 DUP2 LT ISZERO PUSH2 0x17A8 JUMPI DUP6 DUP2 ADD DUP4 ADD MLOAD DUP6 DUP3 ADD PUSH1 0x40 ADD MSTORE DUP3 ADD PUSH2 0x178C JUMP JUMPDEST POP PUSH1 0x0 PUSH1 0x40 DUP3 DUP7 ADD ADD MSTORE PUSH1 0x40 PUSH1 0x1F NOT PUSH1 0x1F DUP4 ADD AND DUP6 ADD ADD SWAP3 POP POP POP SWAP3 SWAP2 POP POP JUMP JUMPDEST DUP1 CALLDATALOAD PUSH1 0x1 PUSH1 0x1 PUSH1 0xA0 SHL SUB DUP2 AND DUP2 EQ PUSH2 0x17E0 JUMPI PUSH1 0x0 DUP1 REVERT JUMPDEST SWAP2 SWAP1 POP JUMP JUMPDEST PUSH1 0x0 PUSH1 0x20 DUP3 DUP5 SUB SLT ISZERO PUSH2 0x17F7 JUMPI PUSH1 0x0 DUP1 REVERT JUMPDEST PUSH2 0x1800 DUP3 PUSH2 0x17C9 JUMP JUMPDEST SWAP4 SWAP3 POP POP POP JUMP JUMPDEST PUSH4 0x4E487B71 PUSH1 0xE0 SHL PUSH1 0x0 MSTORE PUSH1 0x41 PUSH1 0x4 MSTORE PUSH1 0x24 PUSH1 0x0 REVERT JUMPDEST PUSH1 0x0 DUP1 PUSH1 0x0 PUSH1 0x60 DUP5 DUP7 SUB SLT ISZERO PUSH2 0x1832 JUMPI PUSH1 0x0 DUP1 REVERT JUMPDEST DUP4 CALLDATALOAD SWAP3 POP PUSH1 0x20 PUSH2 0x1843 DUP2 DUP7 ADD PUSH2 0x17C9 JUMP JUMPDEST SWAP3 POP PUSH1 0x40 DUP6 ADD CALLDATALOAD PUSH8 0xFFFFFFFFFFFFFFFF DUP1 DUP3 GT ISZERO PUSH2 0x1860 JUMPI PUSH1 0x0 DUP1 REVERT JUMPDEST DUP2 DUP8 ADD SWAP2 POP DUP8 PUSH1 0x1F DUP4 ADD SLT PUSH2 0x1874 JUMPI PUSH1 0x0 DUP1 REVERT JUMPDEST DUP2 CALLDATALOAD DUP2 DUP2 GT ISZERO PUSH2 0x1886 JUMPI PUSH2 0x1886 PUSH2 0x1807 JUMP JUMPDEST DUP1 PUSH1 0x5 SHL PUSH1 0x40 MLOAD PUSH1 0x1F NOT PUSH1 0x3F DUP4 ADD AND DUP2 ADD DUP2 DUP2 LT DUP6 DUP3 GT OR ISZERO PUSH2 0x18AB JUMPI PUSH2 0x18AB PUSH2 0x1807 JUMP JUMPDEST PUSH1 0x40 MSTORE SWAP2 DUP3 MSTORE DUP5 DUP3 ADD SWAP3 POP DUP4 DUP2 ADD DUP6 ADD SWAP2 DUP11 DUP4 GT ISZERO PUSH2 0x18C9 JUMPI PUSH1 0x0 DUP1 REVERT JUMPDEST SWAP4 DUP6 ADD SWAP4 JUMPDEST DUP3 DUP6 LT ISZERO PUSH2 0x18E7 JUMPI DUP5 CALLDATALOAD DUP5 MSTORE SWAP4 DUP6 ADD SWAP4 SWAP3 DUP6 ADD SWAP3 PUSH2 0x18CE JUMP JUMPDEST DUP1 SWAP7 POP POP POP POP POP POP POP SWAP3 POP SWAP3 POP SWAP3 JUMP JUMPDEST PUSH1 0x20 DUP1 DUP3 MSTORE DUP3 MLOAD DUP3 DUP3 ADD DUP2 SWAP1 MSTORE PUSH1 0x0 SWAP2 SWAP1 PUSH1 0x40 SWAP1 DUP2 DUP6 ADD SWAP1 DUP7 DUP5 ADD DUP6 JUMPDEST DUP3 DUP2 LT ISZERO PUSH2 0x1945 JUMPI DUP2 MLOAD DUP1 MLOAD DUP6 MSTORE DUP7 DUP2 ADD MLOAD ISZERO ISZERO DUP8 DUP7 ADD MSTORE DUP6 ADD MLOAD DUP6 DUP6 ADD MSTORE PUSH1 0x60 SWAP1 SWAP4 ADD SWAP3 SWAP1 DUP6 ADD SWAP1 PUSH1 0x1 ADD PUSH2 0x1914 JUMP JUMPDEST POP SWAP2 SWAP8 SWAP7 POP POP POP POP POP POP POP JUMP JUMPDEST PUSH1 0x1 PUSH1 0x1 PUSH1 0xA0 SHL SUB DUP8 DUP2 AND DUP3 MSTORE DUP7 AND PUSH1 0x20 DUP3 ADD MSTORE PUSH1 0x40 DUP2 ADD DUP6 SWAP1 MSTORE PUSH1 0x60 DUP2 ADD DUP5 SWAP1 MSTORE PUSH1 0xC0 DUP2 ADD PUSH2 0x1985 PUSH1 0x80 DUP4 ADD DUP6 PUSH2 0x16FB JUMP JUMPDEST DUP3 ISZERO ISZERO PUSH1 0xA0 DUP4 ADD MSTORE SWAP8 SWAP7 POP POP POP POP POP POP POP JUMP JUMPDEST PUSH1 0x0 DUP1 PUSH1 0x0 PUSH1 0x60 DUP5 DUP7 SUB SLT ISZERO PUSH2 0x19AD JUMPI PUSH1 0x0 DUP1 REVERT JUMPDEST DUP4 CALLDATALOAD SWAP3 POP PUSH1 0x20 DUP5 ADD CALLDATALOAD PUSH1 0x4 DUP2 LT PUSH2 0x19C3 JUMPI PUSH1 0x0 DUP1 REVERT JUMPDEST SWAP3 SWAP6 SWAP3 SWAP5 POP POP POP PUSH1 0x40 SWAP2 SWAP1 SWAP2 ADD CALLDATALOAD SWAP1 JUMP JUMPDEST PUSH1 0x20 DUP1 DUP3 MSTORE PUSH1 0x15 SWAP1 DUP3 ADD MSTORE PUSH21 0x115CD8DC9BDDC8191BD95CC81B9BDD08195E1A5CDD PUSH1 0x5A SHL PUSH1 0x40 DUP3 ADD MSTORE PUSH1 0x60 ADD SWAP1 JUMP JUMPDEST PUSH4 0x4E487B71 PUSH1 0xE0 SHL PUSH1 0x0 MSTORE PUSH1 0x32 PUSH1 0x4 MSTORE PUSH1 0x24 PUSH1 0x0 REVERT JUMPDEST PUSH4 0x4E487B71 PUSH1 0xE0 SHL PUSH1 0x0 MSTORE PUSH1 0x11 PUSH1 0x4 MSTORE PUSH1 0x24 PUSH1 0x0 REVERT JUMPDEST DUP1 DUP3 ADD DUP1 DUP3 GT ISZERO PUSH2 0x1A42 JUMPI PUSH2 0x1A42 PUSH2 0x1A19 JUMP JUMPDEST SWAP3 SWAP2 POP POP JUMP JUMPDEST PUSH1 0x0 PUSH1 0x1 DUP3 ADD PUSH2 0x1A5A JUMPI PUSH2 0x1A5A PUSH2 0x1A19 JUMP JUMPDEST POP PUSH1 0x1 ADD SWAP1 JUMP JUMPDEST DUP2 DUP2 SUB DUP2 DUP2 GT ISZERO PUSH2 0x1A42 JUMPI PUSH2 0x1A42 PUSH2 0x1A19 JUMP JUMPDEST DUP1 DUP3 MUL DUP2 ISZERO DUP3 DUP3 DIV DUP5 EQ OR PUSH2 0x1A42 JUMPI PUSH2 0x1A42 PUSH2 0x1A19 JUMP JUMPDEST PUSH1 0x0 DUP3 PUSH2 0x1AA8 JUMPI PUSH4 0x4E487B71 PUSH1 0xE0 SHL PUSH1 0x0 MSTORE PUSH1 0x12 PUSH1 0x4 MSTORE PUSH1 0x24 PUSH1 0x0 REVERT JUMPDEST POP DIV SWAP1 JUMP JUMPDEST PUSH1 0x20 DUP2 ADD PUSH2 0x1A42 DUP3 DUP5 PUSH2 0x170F JUMP INVALID PUSH22 0xD86E5BFA1175E2DC677F3ABE3AEBBA3069F2DB6AE492 CALL PUSH20 0x4D4B4BC65F61C1A26469706673582212204B4B49 0xB5 0xF7 GT LOG2 PUSH8 0x7ACBCF7837E03294 0x4E DUP6 0xBD PUSH22 0x967B8CC6045B02A966D05EBF64736F6C634300081400 CALLER "},"methodIdentifiers":{"approveMilestone(bytes32,uint256)":"2b7a1f96","createEscrow(bytes32,address,uint256[])":"b6bab823","escrows(bytes32)":"2d83549c","getEscrow(bytes32)":"f023b811","getMilestones(bytes32)":"ea4a873c","milestones(bytes32,uint256)":"669c8cba","owner()":"8da5cb5b","platformAdmin()":"cdcd7fb5","raiseDispute(bytes32)":"e14f5b7d","renounceOwnership()":"715018a6","resolveDispute(bytes32,uint8,uint256)":"ff258f33","transferOwnership(address)":"f2fde38b","updatePlatformAdmin(address)":"a9f03b83","version()":"54fd4d50"}}}}}