{
  "_format": "hh-sol-artifact-1",
  "contractName": "Escrow",
  "sourceName": "contracts/Escrow.sol",
  "abi": [
    {
      "inputs": [],
      "stateMutability": "nonpayable",
      "type": "constructor"
    },
    {
      "inputs": [
        {
          "internalType": "address",
          "name": "owner",
          "type": "address"
        }
      ],
      "name": "OwnableInvalidOwner",
      "type": "error"
    },
    {
      "inputs": [
        {
          "internalType": "address",
          "name": "account",
          "type": "address"
        }
      ],
      "name": "OwnableUnauthorizedAccount",
      "type": "error"
    },
    {
      "anonymous": false,
      "inputs": [
        {
          "indexed": false,
          "internalType": "string",
          "name": "projectId",
          "type": "string"
        },
        {
          "indexed": true,
          "internalType": "address",
          "name": "client",
          "type": "address"
        },
        {
          "indexed": false,
          "internalType": "uint256",
          "name": "amount",
          "type": "uint256"
        }
      ],
      "name": "FundsLocked",
      "type": "event"
    },
    {
      "anonymous": false,
      "inputs": [
        {
          "indexed": false,
          "internalType": "string",
          "name": "projectId",
          "type": "string"
        },
        {
          "indexed": true,
          "internalType": "address",
          "name": "freelancer",
          "type": "address"
        },
        {
          "indexed": false,
          "internalType": "uint256",
          "name": "amount",
          "type": "uint256"
        }
      ],
      "name": "FundsReleased",
      "type": "event"
    },
    {
      "anonymous": false,
      "inputs": [
        {
          "indexed": true,
          "internalType": "address",
          "name": "previousOwner",
          "type": "address"
        },
        {
          "indexed": true,
          "internalType": "address",
          "name": "newOwner",
          "type": "address"
        }
      ],
      "name": "OwnershipTransferred",
      "type": "event"
    },
    {
      "inputs": [],
      "name": "emergencyWithdraw",
      "outputs": [],
      "stateMutability": "nonpayable",
      "type": "function"
    },
    {
      "inputs": [],
      "name": "getBalance",
      "outputs": [
        {
          "internalType": "uint256",
          "name": "",
          "type": "uint256"
        }
      ],
      "stateMutability": "view",
      "type": "function"
    },
    {
      "inputs": [
        {
          "internalType": "string",
          "name": "projectId",
          "type": "string"
        }
      ],
      "name": "lockFunds",
      "outputs": [],
      "stateMutability": "payable",
      "type": "function"
    },
    {
      "inputs": [],
      "name": "owner",
      "outputs": [
        {
          "internalType": "address",
          "name": "",
          "type": "address"
        }
      ],
      "stateMutability": "view",
      "type": "function"
    },
    {
      "inputs": [
        {
          "internalType": "string",
          "name": "",
          "type": "string"
        }
      ],
      "name": "projects",
      "outputs": [
        {
          "internalType": "uint256",
          "name": "amount",
          "type": "uint256"
        },
        {
          "internalType": "address",
          "name": "client",
          "type": "address"
        },
        {
          "internalType": "bool",
          "name": "active",
          "type": "bool"
        }
      ],
      "stateMutability": "view",
      "type": "function"
    },
    {
      "inputs": [],
      "name": "renounceOwnership",
      "outputs": [],
      "stateMutability": "nonpayable",
      "type": "function"
    },
    {
      "inputs": [
        {
          "internalType": "address",
          "name": "newOwner",
          "type": "address"
        }
      ],
      "name": "transferOwnership",
      "outputs": [],
      "stateMutability": "nonpayable",
      "type": "function"
    }
  ],
  "bytecode": "0x608060405234801561001057600080fd5b50338061003757604051631e4fbdf760e01b81526000600482015260240160405180910390fd5b61004081610046565b50610096565b600080546001600160a01b038381166001600160a01b0319831681178455604051919092169283917f8be0079c531659141344cd1fd0a4f28419497f9722a3daafe3b4186f6b6457e09190a35050565b610634806100a56000396000f3fe6080604052600436106100705760003560e01c80638da5cb5b1161004e5780638da5cb5b146100bf57806391c9b268146100e7578063db2e21bc14610162578063f2fde38b1461017757600080fd5b806312065fe014610075578063151802e914610095578063715018a6146100aa575b600080fd5b34801561008157600080fd5b506040514781526020015b60405180910390f35b6100a86100a33660046104a2565b610197565b005b3480156100b657600080fd5b506100a8610320565b3480156100cb57600080fd5b506000546040516001600160a01b03909116815260200161008c565b3480156100f357600080fd5b5061013d6101023660046104a2565b80516020818301810180516001808352938301929094019190912092905281549101546001600160a01b03811690600160a01b900460ff1683565b604080519384526001600160a01b03909216602084015215159082015260600161008c565b34801561016e57600080fd5b506100a8610334565b34801561018357600080fd5b506100a8610192366004610553565b6103d4565b600034116101f85760405162461bcd60e51b8152602060048201526024808201527f53484d20616d6f756e74206d7573742062652067726561746572207468616e206044820152637a65726f60e01b60648201526084015b60405180910390fd5b60018160405161020891906105a7565b9081526040519081900360200190206001015460ff600160a01b909104161561026c5760405162461bcd60e51b815260206004820152601660248201527550726f6a65637420616c72656164792065786973747360501b60448201526064016101ef565b60408051606081018252348152336020820152600181830181905291519091906102979084906105a7565b90815260408051918290036020908101832084518155908401516001909101805494909201511515600160a01b026001600160a81b03199094166001600160a01b03909116179290921790915533907fd4d628f3776f7e907ac92fdc631b43f257f744c31595416272ded70efeefd5719061031590849034906105c3565b60405180910390a250565b61032861040f565b610332600061043c565b565b61033c61040f565b600080546040516001600160a01b039091169047908381818185875af1925050503d8060008114610389576040519150601f19603f3d011682016040523d82523d6000602084013e61038e565b606091505b50509050806103d15760405162461bcd60e51b815260206004820152600f60248201526e15da5d1a191c985dc819985a5b1959608a1b60448201526064016101ef565b50565b6103dc61040f565b6001600160a01b03811661040657604051631e4fbdf760e01b8152600060048201526024016101ef565b6103d18161043c565b6000546001600160a01b031633146103325760405163118cdaa760e01b81523360048201526024016101ef565b600080546001600160a01b038381166001600160a01b0319831681178455604051919092169283917f8be0079c531659141344cd1fd0a4f28419497f9722a3daafe3b4186f6b6457e09190a35050565b634e487b7160e01b600052604160045260246000fd5b6000602082840312156104b457600080fd5b813567ffffffffffffffff808211156104cc57600080fd5b818401915084601f8301126104e057600080fd5b8135818111156104f2576104f261048c565b604051601f8201601f19908116603f0116810190838211818310171561051a5761051a61048c565b8160405282815287602084870101111561053357600080fd5b826020860160208301376000928101602001929092525095945050505050565b60006020828403121561056557600080fd5b81356001600160a01b038116811461057c57600080fd5b9392505050565b60005b8381101561059e578181015183820152602001610586565b50506000910152565b600082516105b9818460208701610583565b9190910192915050565b60408152600083518060408401526105e2816060850160208801610583565b602083019390935250601f91909101601f19160160600191905056fea26469706673582212206bda361d4cc3b5c215a2fb6749b930be57352c9fa6bc1c6b2e4bb547bc5b918464736f6c63430008140033",
  "linkReferences": {},
  "deployedLinkReferences": {}
}