{
  "_format": "hh-sol-artifact-1",
  "contractName": "TrustToken",
  "sourceName": "contracts/TrustToken.sol",
  "abi": [
    {
      "inputs": [],
      "stateMutability": "nonpayable",
      "type": "constructor"
    },
    {
      "anonymous": false,
      "inputs": [
        {
          "indexed": true,
          "internalType": "address",
          "name": "owner",
          "type": "address"
        },
        {
          "indexed": true,
          "internalType": "address",
          "name": "spender",
          "type": "address"
        },
        {
          "indexed": false,
          "internalType": "uint256",
          "name": "value",
          "type": "uint256"
        }
      ],
      "name": "Approval",
      "type": "event"
    },
    {
      "anonymous": false,
      "inputs": [
        {
          "indexed": true,
          "internalType": "address",
          "name": "from",
          "type": "address"
        },
        {
          "indexed": true,
          "internalType": "address",
          "name": "to",
          "type": "address"
        },
        {
          "indexed": false,
          "internalType": "uint256",
          "name": "value",
          "type": "uint256"
        }
      ],
      "name": "Transfer",
      "type": "event"
    },
    {
      "inputs": [
        {
          "internalType": "address",
          "name": "",
          "type": "address"
        },
        {
          "internalType": "address",
          "name": "",
          "type": "address"
        }
      ],
      "name": "allowance",
      "outputs": [
        {
          "internalType": "uint256",
          "name": "",
          "type": "uint256"
        }
      ],
      "stateMutability": "view",
      "type": "function"
    },
    {
      "inputs": [
        {
          "internalType": "address",
          "name": "spender",
          "type": "address"
        },
        {
          "internalType": "uint256",
          "name": "value",
          "type": "uint256"
        }
      ],
      "name": "approve",
      "outputs": [
        {
          "internalType": "bool",
          "name": "",
          "type": "bool"
        }
      ],
      "stateMutability": "nonpayable",
      "type": "function"
    },
    {
      "inputs": [
        {
          "internalType": "address",
          "name": "",
          "type": "address"
        }
      ],
      "name": "balanceOf",
      "outputs": [
        {
          "internalType": "uint256",
          "name": "",
          "type": "uint256"
        }
      ],
      "stateMutability": "view",
      "type": "function"
    },
    {
      "inputs": [],
      "name": "decimals",
      "outputs": [
        {
          "internalType": "uint8",
          "name": "",
          "type": "uint8"
        }
      ],
      "stateMutability": "view",
      "type": "function"
    },
    {
      "inputs": [
        {
          "internalType": "address",
          "name": "to",
          "type": "address"
        },
        {
          "internalType": "uint256",
          "name": "amount",
          "type": "uint256"
        }
      ],
      "name": "mint",
      "outputs": [],
      "stateMutability": "nonpayable",
      "type": "function"
    },
    {
      "inputs": [],
      "name": "name",
      "outputs": [
        {
          "internalType": "string",
          "name": "",
          "type": "string"
        }
      ],
      "stateMutability": "view",
      "type": "function"
    },
    {
      "inputs": [],
      "name": "owner",
      "outputs": [
        {
          "internalType": "address",
          "name": "",
          "type": "address"
        }
      ],
      "stateMutability": "view",
      "type": "function"
    },
    {
      "inputs": [],
      "name": "symbol",
      "outputs": [
        {
          "internalType": "string",
          "name": "",
          "type": "string"
        }
      ],
      "stateMutability": "view",
      "type": "function"
    },
    {
      "inputs": [],
      "name": "totalSupply",
      "outputs": [
        {
          "internalType": "uint256",
          "name": "",
          "type": "uint256"
        }
      ],
      "stateMutability": "view",
      "type": "function"
    },
    {
      "inputs": [
        {
          "internalType": "address",
          "name": "to",
          "type": "address"
        },
        {
          "internalType": "uint256",
          "name": "value",
          "type": "uint256"
        }
      ],
      "name": "transfer",
      "outputs": [
        {
          "internalType": "bool",
          "name": "",
          "type": "bool"
        }
      ],
      "stateMutability": "nonpayable",
      "type": "function"
    },
    {
      "inputs": [
        {
          "internalType": "address",
          "name": "from",
          "type": "address"
        },
        {
          "internalType": "address",
          "name": "to",
          "type": "address"
        },
        {
          "internalType": "uint256",
          "name": "value",
          "type": "uint256"
        }
      ],
      "name": "transferFrom",
      "outputs": [
        {
          "internalType": "bool",
          "name": "",
          "type": "bool"
        }
      ],
      "stateMutability": "nonpayable",
      "type": "function"
    }
  ],
  "bytecode": "0x608060405234801561001057600080fd5b50600180546001600160a01b0319163390811790915561003a9069d3c21bcecceda100000061003f565b6100ee565b8060008082825461005091906100c7565b90915550506001600160a01b0382166000908152600260205260408120805483929061007d9084906100c7565b90915550506040518181526001600160a01b038316906000907fddf252ad1be2c89b69c2b068fc378daa952ba7f163c4a11628f55a4df523b3ef9060200160405180910390a35050565b808201808211156100e857634e487b7160e01b600052601160045260246000fd5b92915050565b6106d5806100fd6000396000f3fe608060405234801561001057600080fd5b50600436106100a95760003560e01c806340c10f191161007157806340c10f191461015a57806370a082311461016f5780638da5cb5b1461018f57806395d89b41146101ba578063a9059cbb146101dc578063dd62ed3e146101ef57600080fd5b806306fdde03146100ae578063095ea7b3146100f357806318160ddd1461011657806323b872dd1461012d578063313ce56714610140575b600080fd5b6100dd6040518060400160405280601081526020016f2a393ab9ba2630b731b2902a37b5b2b760811b81525081565b6040516100ea919061053e565b60405180910390f35b6101066101013660046105a8565b61021a565b60405190151581526020016100ea565b61011f60005481565b6040519081526020016100ea565b61010661013b3660046105d2565b610287565b610148601281565b60405160ff90911681526020016100ea565b61016d6101683660046105a8565b610342565b005b61011f61017d36600461060e565b60026020526000908152604090205481565b6001546101a2906001600160a01b031681565b6040516001600160a01b0390911681526020016100ea565b6100dd6040518060400160405280600381526020016215149560ea1b81525081565b6101066101ea3660046105a8565b610397565b61011f6101fd366004610630565b600360209081526000928352604080842090915290825290205481565b3360008181526003602090815260408083206001600160a01b038716808552925280832085905551919290917f8c5be1e5ebec7d5bd14f71427d1e84f3dd0314c0f7b2291e5b200ac8c7c3b925906102759086815260200190565b60405180910390a35060015b92915050565b6001600160a01b03831660009081526003602090815260408083203384529091528120548211156102f45760405162461bcd60e51b8152602060048201526012602482015271105b1b1bddd85b98d948195e18d95959195960721b60448201526064015b60405180910390fd5b6001600160a01b038416600090815260036020908152604080832033845290915281208054849290610327908490610679565b9091555061033890508484846103ad565b5060019392505050565b6001546001600160a01b031633146103895760405162461bcd60e51b815260206004820152600a60248201526927b7363c9037bbb732b960b11b60448201526064016102eb565b61039382826104b6565b5050565b60006103a43384846103ad565b50600192915050565b6001600160a01b0383166000908152600260205260409020548111156104085760405162461bcd60e51b815260206004820152601060248201526f10985b185b98d948195e18d95959195960821b60448201526064016102eb565b6001600160a01b03831660009081526002602052604081208054839290610430908490610679565b90915550506001600160a01b0382166000908152600260205260408120805483929061045d90849061068c565b92505081905550816001600160a01b0316836001600160a01b03167fddf252ad1be2c89b69c2b068fc378daa952ba7f163c4a11628f55a4df523b3ef836040516104a991815260200190565b60405180910390a3505050565b806000808282546104c7919061068c565b90915550506001600160a01b038216600090815260026020526040812080548392906104f490849061068c565b90915550506040518181526001600160a01b038316906000907fddf252ad1be2c89b69c2b068fc378daa952ba7f163c4a11628f55a4df523b3ef9060200160405180910390a35050565b600060208083528351808285015260005b8181101561056b5785810183015185820160400152820161054f565b506000604082860101526040601f19601f8301168501019250505092915050565b80356001600160a01b03811681146105a357600080fd5b919050565b600080604083850312156105bb57600080fd5b6105c48361058c565b946020939093013593505050565b6000806000606084860312156105e757600080fd5b6105f08461058c565b92506105fe6020850161058c565b9150604084013590509250925092565b60006020828403121561062057600080fd5b6106298261058c565b9392505050565b6000806040838503121561064357600080fd5b61064c8361058c565b915061065a6020840161058c565b90509250929050565b634e487b7160e01b600052601160045260246000fd5b8181038181111561028157610281610663565b808201808211156102815761028161066356fea26469706673582212209a1157437ac39f88b91b045ddb13016a6ff8037bfc2f51a7f8c83f85f83cf9ef64736f6c63430008140033",
  "linkReferences": {},
  "deployedLinkReferences": {}
}